:020000040800F2
:1000000020040020A1010008A5010008A7010008A4
:10001000A9010008AB010008AD01000800000000C4
:10002000000000000000000000000000AF01000818
:10003000B101000800000000B3010008B50100088C
:10004000B7010008B7010008B70100080B3000082D
:10005000B7010008B7010008E1280008512900088D
:10006000C1290008312A0008B7010008B7010008BB
:10007000B7010008B7010008B7010008B701000880
:10008000B7010008B7010008B7010008B701000870
:10009000B7010008B7010008B7010008B701000860
:1000A000B7010008B7010008B7010008B701000850
:1000B0009B4C0008154D0008B7010008B701000867
:1000C000B7010008B7010008B7010008B701000830
:1000D000B701000897070008BF4E00084950000804
:1000E000B7010008B7010008B701000800F002F8E6
:1000F00000F044F80AA090E8000C82448344AAF17E
:100100000107DA4501D100F039F8AFF2090EBAE87B
:100110000F0013F0010F18BFFB1A43F0010318473B
:10012000505F0000705F0000103A24BF78C878C1AB
:10013000FAD8520724BF30C830C144BF04680C60ED
:10014000704700000023002400250026103A28BF35
:1001500078C1FBD8520728BF30C148BF0B60704739
:10016000642905F01F83732905F00B840020704774
:100170001FB505F0C8FE1FBD10B510BD05F06EFC23
:100180001146FFF7F5FF00F025F805F08CFC03B4ED
:10019000FFF7F2FF03BC00F0F1FA000030BF0000EF
:1001A00008480047FEE7FEE7FEE7FEE7FEE7FEE75A
:1001B000FEE7FEE7FEE7FEE703480449024A044B78
:1001C00070470000ED0000082002002020040020FD
:1001D00020020020092000F062FA482000F0F0F828
:1001E00002F04BFE41F61F414FF47A7004F038FDE7
:1001F00041F61F4141F2883004F063FD4FF416517F
:10020000482000F002FB4FF41651242004F0DBFDDF
:100210004FF41651242004F09CFE04F08BFF01F0F3
:10022000E3FB00F042FC02F0EBFA02F02BFB01F0E2
:1002300029FA04F0A1FF00F0F1FB00F012FC57A234
:100240000321022000F017FC4FF47A7000F0CEF882
:1002500000F007FC53A20121084600F00CFC53A259
:100260000121022000F007FC04F0A4FF01F079FC5A
:100270004FF47A7000F0BAF800F0F3FB00F066FE7D
:100280008BE04C480078102804D0112804D01228A4
:1002900008D104E000BF06E005F086F803E005F0B1
:1002A000A0F800E000BF00BF43480078102804D049
:1002B000112804D0122807D103E000BF05E000BFD9
:1002C00003E005F09EF800E000BF00BF3B48007867
:1002D000342842D014DC242833D008DC102822D063
:1002E000212825D0222826D0232854D126E02528CD
:1002F00045D0312828D0322829D033284BD129E0C5
:10030000392839D008DC35282AD036282BD0372890
:100310002CD038283FD12CE0512833D0522834D06B
:10032000532838D134E000F011FE01F01DFA33E01B
:1003300002F0CCFF30E001F043FA2DE001F090FA3A
:100340002AE001F0E8FA27E003F08BF824E003F05C
:1003500037F921E003F006FA1EE003F07BFC1BE016
:1003600003F0A3FD18E004F025F915E004F049FAC4
:1003700012E004F0A9FA0FE004F004FB0CE001F035
:10038000F7FA09E000F080FD06E000F09CFD03E0D4
:1003900000F0B8FD00E000BF00BF72E777656C6356
:1003A0006F6D65005A49474245450000475052531A
:1003B00000000000200000201E0000200A00002095
:1003C0004FF0E021096921F004014FF0E0221161B2
:1003D000C21700EB5272D2101F4B1A7019460978DF
:1003E0004FF47A7251431D4A1180704701461B4AEF
:1003F00012884A434FF0E0235A6100229A61012299
:100400001A6100BF4FF0E022106910F0010F02D016
:1004100010F4803FF6D000224FF0E0231A619A6179
:10042000704701460C4A12784A434FF0E0235A6164
:1004300000229A6101221A6100BF4FF0E022106988
:1004400010F0010F02D010F4803FF6D000224FF0E0
:10045000E0231A619A617047620000206400002066
:10046000B44A0A400243B44B1A607047014607235E
:1004700023EA01021202B14B18684FF6FF0300EAAB
:100480000300AF4B40EA030040EA02004FF0E023D4
:10049000C3F80C0D70472DE9F04780468946144695
:1004A0001D462046E11704EB91714FEAA10AE117BE
:1004B00004EB91718910A4EB8101CFB2042000EB11
:1004C000C700C7B22846FFF7D1FFC5F1040008FAFC
:1004D00000F60F20284100EA0900064306F00F0647
:1004E000202C0CDA974800684FF0010101FA04F162
:1004F00040EA01004FF0E021C1F800010DE0924810
:100500000068A4F120014FF0010202FA01F240EA72
:1005100002004FF0E021C1F804018C4850F82A0095
:1005200006FA07F10843894941F82A00BDE8F08737
:1005300070B504460B46CE1701EB9676B010CE1779
:1005400001EB9676B610A1EB8606B606350E804B0B
:100550009B6943F001037E4EB3614FEAB63353F813
:1005600020300F26AE40B3437A4E46F82030334653
:1005700053F8203004FA05F63343764E46F820301F
:10058000754B1E684FF0010303FA01F346EA0306B8
:10059000724BC3F8006412F0010F0AD0704B1B6855
:1005A0004FF0010606FA01F643EA06036B4EC6F861
:1005B0000C3412F0020F0AD06A4B1B684FF0010690
:1005C00006FA01F643EA0603644EC6F8083470BD25
:1005D00000B500205E490861C86014204861002011
:1005E0008861C8610846006840F00100086008465C
:1005F00040685D49084056494860084600685B49C4
:100600000840534908600846006820F480200860CC
:100610000846406820F4FE00486000208860002101
:100620004FF00060FFF71CFF00BD10B55048006898
:1006300040F004004FF0E021C1F8100D4448C069BB
:1006400040F080504249C8614A48406840F4807098
:10065000484948600846006840F0040008600846C1
:10066000006840F002000860FFF798FD10BD3448B4
:10067000001D32490860704701464906344A9269B4
:1006800042F00102324B9A61344A526822F0E06231
:10069000324B5A601A4652680A435A60704730B566
:1006A00004460025FFF794FF2948006840F4803095
:1006B0002749086000BF26480068400CFBD04FF473
:1006C000806023494860A01EC4B20846406840EAE2
:1006D000844048600846406840F4803048602648BE
:1006E000006840F03200244908601948006840F072
:1006F00080701749086000BF15480068400EFBD0A5
:100700001348406840F002001149486005E0104875
:100710004068C0F3870505F00305022DF7D130BD11
:100720000146002001E0421C90B211F8013B002B71
:10073000F9D1704780FFFF1F08ED00E00CED00E0ED
:100740000000FA0500E100E004E100E000E400E060
:100750000010024008000140000401400000014078
:100760000C040140080401400000FFF8FFFFF6FE02
:1007700010ED00E00070004000200240014600BF84
:10078000704700BF5E4A128812F0400FFAD0C2B222
:100790005C4B1A8070475A49098811F0200F33D0FA
:1007A00058490988C8B25849097811F0800F2BD1EF
:1007B0005549097811F0400F0CD00A2803D00021C8
:1007C000514A117020E05049097841F080014E4AA9
:1007D000117019E00D2806D14B49097841F040010C
:1007E000494A117010E04849097801F03F01474A31
:1007F000505445490978491C434A117011460978FB
:100800003F2901DD0021117070472DE9F05F054699
:100810000E46300105F09CFA81463D4905FB01F08A
:1008200005F096FA8246494605F0B0F90746384683
:1008300005F06EFA84B2204605F08AFA83463946FE
:1008400005F06DFB82464FF0834105F095FA814635
:1008500005F05EFA8046240104EB080084B22D48BE
:10086000806940F004002B4988610846806940F4A3
:10087000804088612848006820F47F602749C1F8DB
:1008800004080846D0F8040840F40B60C1F80408D6
:100890002048C06840F480401E49C8600846C068CF
:1008A00020F48040C8601E48A0F808481D48008811
:1008B00042F20C0140EA01001949A1F80C0808466F
:1008C000B0F8000800F04000A1F800080846B0F8B1
:1008D0000C0840F48070A1F80C080846B0F80C0829
:1008E00040F020000F4908804FF002034FF025022E
:1008F0004FF003010846FFF7CEFDBDE8F09F000072
:1009000000380140043801406800002071010020D7
:1009100040420F0000100240040801400000014066
:10092000003001400C38014010B5044601207049E8
:1009300008604FF00A00FFF774FD012C03D101207D
:100940006C49086003E014B900206A4908600A2075
:10095000FFF767FD0020664908604FF00A00FFF7C7
:1009600060FD10BD70B5044600250DE014F0800F49
:1009700003D00120FFF7D8FF02E00020FFF7D4FFEB
:100980006006040E681CC5B2082DEFDB70BD10B503
:1009900004460120584908604FF0F800FFF7E2FFD5
:1009A0003220FFF73EFD04F0F000FFF7DBFF3220BE
:1009B000FFF737FDF02101EA0410FFF7D3FF012014
:1009C0004E49C1F8A401FFF72CFD002048490860FA
:1009D0004FF03200FFF725FD10BD10B50446FA2098
:1009E000FFF7C0FF3220FFF71CFD04F0F000FFF717
:1009F000B9FF3220FFF715FDF02101EA0410FFF7DF
:100A0000B1FF01203A490860FFF70BFD00203B4988
:100A1000C1F8A4013220FFF704FD10BD10B501207C
:100A2000354908604FF00A00FFF7FBFC3020FFF764
:100A3000AEFF0C20FFF7ABFF0120FFF7A8FF062059
:100A4000FFF7A5FF0C20FFF7A2FF0520FFF7CEFC64
:100A500010BD10B50120FFF79AFF0120FFF7C6FC7B
:100A600010BD10B5FFF7F5FF0C20FFF790FF012038
:100A7000FFF7BCFC10BD2DE9F04106460F461446B9
:100A8000711E1F4A515C3944C8B2FFF780FF002530
:100A900004E0605DFFF7A1FF681C85B22046FFF708
:100AA0003FFEA842F5DCBDE8F0811648806940F0C1
:100AB0000800144988611448006820F07040134908
:100AC000C1F8000C0846D0F8000C40F0C040C1F856
:100AD000000C0846D0F8040C20F0FF00C1F8040C0C
:100AE0000846D0F8040C40F06600C1F8040C7047CA
:100AF000A4812142A08121429C8121420080214287
:100B00007000002000100240000C01400000014075
:100B100010B5FFF7A6FFCAA201210220FFF7ABFF25
:100B2000CA480078642190FBF1F03030C4B220460E
:100B3000FFF753FFC5480078642190FBF1F201FBF9
:100B400012000A2190FBF1F03030C4B22046FFF7CA
:100B500044FFBE4800780A2190FBF1F201FB12002D
:100B60003030C4B22046FFF738FFB9A2012103207C
:100B7000FFF781FFB9480078642190FBF1F0303035
:100B8000C4B22046FFF729FFB4480078642190FBE7
:100B9000F1F201FB12000A2190FBF1F03030C4B2F7
:100BA0002046FFF71AFFAD4800780A2190FBF1F2CA
:100BB00001FB12003030C4B22046FFF70EFF10BD1B
:100BC00010B5FFF74EFFA6A201210846FFF753FF1D
:100BD0009020FFF7DCFEA5480078642190FBF1F03F
:100BE0003030C4B22046FFF7F8FEA04800786421F8
:100BF00090FBF1F201FB12000A2190FBF1F0303082
:100C0000C4B22046FFF7E9FE984800780A2190FB1D
:100C1000F1F201FB12003030C4B22046FFF7DDFED6
:100C20002E20FFF7DAFE91484078642190FBF1F026
:100C30003030C4B22046FFF7D0FE8C4840786421A3
:100C400090FBF1F201FB12000A2190FBF1F0303031
:100C5000C4B22046FFF7C1FE844840780A2190FBC9
:100C6000F1F201FB12003030C4B22046FFF7B5FEAE
:100C70002E20FFF7B2FE7D488078642190FBF1F0D2
:100C80003030C4B22046FFF7A8FE7848807864214F
:100C900090FBF1F201FB12000A2190FBF1F03030E1
:100CA000C4B22046FFF799FE704880780A2190FB75
:100CB000F1F201FB12003030C4B22046FFF78DFE86
:100CC0002E20FFF78AFE6948C078642190FBF1F07E
:100CD0003030C4B22046FFF780FE6448C0786421FB
:100CE00090FBF1F201FB12000A2190FBF1F0303091
:100CF000C4B22046FFF771FE5C48C0780A2190FB21
:100D0000F1F201FB12003030C4B22046FFF765FE5D
:100D100057A201210320FFF7AEFE54480079642159
:100D200090FBF1F201FB12000A2190FBF1F0303050
:100D3000C4B22046FFF751FE4C4800790A2190FBCF
:100D4000F1F201FB12003030C4B22046FFF745FE3D
:100D500046484079642190FBF1F201FB12000A2120
:100D600090FBF1F03030C4B22046FFF736FE3F482A
:100D700040790A2190FBF1F201FB12003030C4B23D
:100D80002046FFF72AFE10BD10B5FFF76AFE3AA213
:100D900001210220FFF76FFE8820FFF7F8FD394898
:100DA00000780A2190FBF1F201FB12003030C4B24E
:100DB0002046FFF712FE334840780A2190FBF1F0FD
:100DC0003030C4B22046FFF708FE2E4840780A2192
:100DD00090FBF1F201FB12003030C4B22046FFF765
:100DE000FCFD4120FFF7F9FD2F20FFF7F6FD254818
:100DF00080780A2190FBF1F201FB12003030C4B27E
:100E00002046FFF7EAFD1F48C0780A2190FBF1F069
:100E10003030C4B22046FFF7E0FD1A48C0780A21FE
:100E200090FBF1F201FB12003030C4B22046FFF714
:100E3000D4FD6D20FFF7D1FD4120FFF7CEFD10BDA1
:100E400047505253B5C44944A3BA00000D000020D6
:100E5000D6D5B6CBB5C44944A3BA00000E000020D5
:100E60004950B5D8D6B7A3BA000000000F00002043
:100E7000B6CBBFDAA3BA00004354B1C8D6B5CEAAE8
:100E8000A3BA00001800002010B52E4800784328AF
:100E90000AD0452811D100202A49087025202A4966
:100EA000087000F04FF90CE000202649087025205A
:100EB0002549087000F046F903E000202149087038
:100EC00000BF00BF10BD10B51E48007843280AD0EF
:100ED000452811D100201B49087025201A490870A7
:100EE00000F030F90CE00020164908702520164962
:100EF000087000F027F903E000201249087000BFD5
:100F000000BF10BD10B50F48007843280AD045280F
:100F100011D100200B49087025200B49087000F002
:100F200011F90CE0002007490870252006490870D7
:100F300000F008F903E000200249087000BF00BF7C
:100F400010BD00000B0000200A00002010B5912009
:100F5000FFF71DFD2020FFF740FD844880884FF4F7
:100F60007A7190FBF1F03030C4B22046FFF735FDC6
:100F70007E4880884FF47A7190FBF1F201FB1200F9
:100F8000642190FBF1F03030C4B22046FFF725FD1C
:100F9000764880884FF47A7190FBF1F201FB1200E1
:100FA000642190FBF1F201FB12000A2190FBF1F0A9
:100FB0003030C4B22046FFF710FD6C4880880A210B
:100FC00090FBF1F201FB12003030C4B22046FFF773
:100FD00004FD2F20FFF701FD644880790A2190FB72
:100FE000F1F03030C4B22046FFF7F7FC5F4880795B
:100FF0000A2190FBF1F201FB12003030C4B220460E
:10100000FFF7EBFC2F20FFF7E8FC5848C0790A21D6
:1010100090FBF1F03030C4B22046FFF7DEFC5348BD
:10102000C0790A2190FBF1F201FB12003030C4B20A
:101030002046FFF7D2FC8A20FFF7A9FC2020FFF70B
:10104000CCFC4A4800780A2190FBF1F03030C4B261
:101050002046FFF7C2FC454800780A2190FBF1F2D8
:1010600001FB12003030C4B22046FFF7B6FC3A2034
:10107000FFF7B3FC3D4840780A2190FBF1F0303097
:10108000C4B22046FFF7A9FC384840780A2190FBFB
:10109000F1F201FB12003030C4B22046FFF79DFC94
:1010A00010BD10B5FFF7DDFC31A202210120FFF7D2
:1010B000E2FC10BD10B5FFF7D4FC31A201210846B7
:1010C000FFF7D9FC32A201210220FFF7D4FC34A2A1
:1010D00001210320FFF7CFFC35A201210420FFF7F7
:1010E000CAFC10BD10B5FFF7BCFC35A201210846B3
:1010F000FFF7C1FC36A201210220FFF7BCFC38A299
:1011000001210320FFF7B7FC39A201210420FFF7DA
:10111000B2FC10BD10B5FFF7A4FC39A201210846AE
:10112000FFF7A9FC3AA201210220FFF7A4FC3DA28F
:1011300001210320FFF79FFC3CA201210420FFF7BF
:101140009AFC10BD10B5FFF78CFC3AA201210846AD
:10115000FFF791FC3BA201210220FFF78CFC3DA28E
:1011600001210320FFF787FC10BD0000B201002021
:10117000C7EBCAE4C8EBC3DCC2EBA3BA00000000B3
:10118000312EC9E8D6C347505253B5C44944000074
:10119000322EC9E8D6C3D6D5B6CBB5C44944000073
:1011A000332EC9E8D6C3CFB5CDB3C8D5C6DA000053
:1011B000342EC9E8D6C3CFB5CDB3CAB1BCE4000064
:1011C000352EC9E8D6C3B7FECEF1C6F749500000A8
:1011D000362EC9E8D6C34354B1C8D6B500000000C6
:1011E000372EC1ACBDD347505253CDF8C2E70000F3
:1011F000382EB6CFBFAA47505253CDF8C2E70000F1
:10120000392EC9E8D6C3B5C7C2BCC3DCC2EB0000E7
:1012100031302E20BBD6B8B4B3F6B3A7C9E8D6C3D5
:101220000000000031312EC9E8D6C30031322EC98A
:10123000E8D6C300312EB2E9BFB44944BAC5C2EB07
:1012400000000000322EB2E9BFB4B7FECEF1C6F7FF
:1012500049500000332EB2E9BFB44354B1C8D6B5EB
:1012600000000000F748806940F00400F5498861FB
:10127000F548006820F0FF00F449C1F8000808466E
:10128000D0F8000840F03300C1F800080846D0F854
:101290000C0840F00300C1F80C08704710B5EA488C
:1012A000006820F0F000E949C1F800080846D0F8CD
:1012B000000840F03000E44908604FF00100E449C4
:1012C0000860E449C1F880014FF00400FFF7A9F875
:1012D0000020E049C1F884010420FFF7A2F80020B3
:1012E000DC49C1F8800110BD10B5D748006820F076
:1012F000F000D649C1F800080846D0F8000840F0D0
:101300003000D14908604FF00000D3490860D1494E
:10131000C1F884014FF00400FFF783F80120CE49A3
:101320000860CC49C1F884014FF00400FFF779F858
:1013300010BD10B50024C448006820F0F000C34977
:10134000C1F800080846D0F8000840F08000BE4907
:1013500008604FF00100BE490860FFF762F8012005
:10136000BC49C1F88001FFF75CF807E0601CC4B21B
:10137000FA2C03DDFFF7B8FF012010BDB748006865
:101380000028F3D1B449086000BFF6E710B500208B
:10139000B1490860AD48D0F8000820F0F000AB4932
:1013A000C1F800080846D0F8000840F03000A6490F
:1013B00008604FF00000A749C1F884014FF0020017
:1013C000FFF72FF80120A349C1F880010220FFF7A1
:1013D00028F800209F49C1F8800110BD10B50020F9
:1013E0009D4908609948D0F8000820F0F00097491E
:1013F000C1F800080846D0F8000840F030009249D3
:1014000008604FF001009349C1F884014FF00200D9
:10141000FFF707F801208F49C1F880010220FFF78C
:1014200000F800208B49C1F8800110BD70B504465A
:101430008548006820F0F0008449C1F8000808469B
:10144000D0F8000840F030007F4908604FF00000FD
:101450008149086005461AE0E0097D4908604FEAC5
:1014600044604FEA10644FF00200FEF7DAFF0120FB
:101470007849C1F880010220FEF7D3FF00207649A9
:1014800008604FF00200FEF7CCFF681CC5B2082DC3
:10149000E2DB70BD70B5054600246B48006820F0A3
:1014A000F0006A49C1F800080846D0F8000840F08A
:1014B0008000C1F800084FF0000616E000206649E1
:1014C00008604FF00200FEF7ACFF01206149C1F84F
:1014D00080016006040E6148006808B1601CC4B257
:1014E0000120FEF79EFF701CC6B2082EE6DB15B980
:1014F000FFF774FF01E0FFF749FF204670BD70B5AC
:1015000004460026FFF7CAFEA020FFF78FFFFFF773
:1015100010FF2012FFF78AFFFFF70BFF2546E117A8
:1015200004EB11610912A4EB0121C8B2FFF77EFFA1
:10153000FFF7FFFEFFF7B2FEA120FFF777FFFFF7EF
:10154000F8FE0020FFF7A6FF0646FFF7CDFE304667
:1015500070BD70B504460E46FFF7A0FEA020FFF751
:1015600065FFFFF7E6FE2012FFF760FFFFF7E1FEE1
:101570002546E11704EB11610912A4EB0121C8B261
:10158000FFF754FFFFF7D5FE3046FFF74FFFFFF799
:10159000D0FEFFF7A9FE0A20FEF728FF70BD2DE957
:1015A000F04105460E461746002409E0E20026FAFF
:1015B00002F2D1B22A1990B2FFF7CBFF601CC4B27D
:1015C000BC42F3DBBDE8F0812DE9F04107460C4653
:1015D0000026002509E036023919491B491E88B248
:1015E000FFF78DFF0644681CC5B2A542F3DB304609
:1015F000BDE8F08110B5FF20FFF781FF0446552CB0
:1016000001D1002010BD5521FF20FFF7A2FFFF20D0
:10161000FFF775FF0446552C01D10020F2E70120A9
:10162000F0E770B506460C46154608E03046721CD9
:1016300096B2FFF764FF04F8010B681E85B2002D17
:10164000F4D170BD001002400008014000000140CC
:1016500084012142000021428001214204012142F3
:1016600070B505460C46164606E021782846FFF779
:1016700070FF681C85B2641C3000A6F101018EB2B7
:10168000F3D170BD10B5FFF7EDFD0020FFF737FF78
:1016900020490870084601781FA004F019F80120BD
:1016A000FFF72DFF20490870084601781FA004F0BD
:1016B0000FF8062221490220FFF7B3FF1F4920A09F
:1016C00004F006F8032222490820FFF7AAFF204869
:1016D0000078632806DD0C201D4908702220487020
:1016E0003820887004221B490B20FFF79AFF194805
:1016F00000780A2808DD0020164908701420487078
:10170000002088701420C870124913A003F0E0FF75
:1017100010BD00000D00002074686520676964201A
:1017200069733D25640A00000E000020746865207E
:101730007469642069733D25640A00000F0000206D
:101740007468652069702069733D25730A00000084
:10175000150000201800002074686520637420695B
:10176000733D25730A00000010B59D48007843289A
:1017700015D04C280AD053281CD100209849087055
:10178000212098490870FFF78CFC17E0002094494D
:101790000870252093490870FFF7D4FC0EE0002064
:1017A0008F49087010208F490870FFF75AF9FFF72A
:1017B000CDFB03E000208A49087000BF00BF10BDC8
:1017C00010B587480078342827D006DC312809D0A6
:1017D000322810D033283DD116E043282FD044289A
:1017E00038D123E000207E49087031207D490870FF
:1017F00001F038FC32E00020794908703220794944
:10180000087001F040FC29E0002075490870332081
:101810007449087001F048FC20E00020704908700D
:1018200034207049087001F05AFC17E000206C4920
:10183000087023206B490870FFF754FC0EE000206D
:1018400067490870102067490870FFF70AF9FFF729
:101850007DFB03E000206249087000BF00BF10BD9F
:1018600010B55F480078382829D006DC35280BD021
:10187000362812D0372848D118E043283AD04428D7
:101880002FD0552841D123E000205549087035203C
:101890005449087001F03EFC3BE0002050490870BC
:1018A00036205049087001F048FC32E000204C49D5
:1018B000087037204B49087001F052FC29E00020E5
:1018C0004749087038204749087001F057FC20E06C
:1018D000002043490870222042490870FFF7EAFBC4
:1018E00017E000203E49087024203E490870FFF7A9
:1018F00011FC0EE000203A490870102039490870A8
:10190000FFF7AFF8FFF722FB03E00020344908702F
:1019100000BF00BF10BD10B531480078392804D091
:10192000432814D055281DD108E000202C49087008
:1019300039202C49087001F02FFC17E000202849BD
:101940000870232027490870FFF7CCFB0EE0002029
:1019500023490870102023490870FFF782F8FFF729
:10196000F5FA03E000201E49087000BF00BF10BD5B
:1019700010B51B480078312806D032280DD0332806
:1019800014D0432826D11AE00020154908705120B0
:1019900014490870FFF7BCF820E0002010490870D7
:1019A000522010490870FFF70BF917E000200C498E
:1019B000087053200B490870FFF7E6F90EE000208D
:1019C00007490870102007490870FFF74AF8FFF729
:1019D000BDFA03E000200249087000BF00BF10BD3F
:1019E0000B0000200A000020FD48806940F0100034
:1019F000FB498861FB48406820F0FF00F9494860D6
:101A00000846406840F0330048600846C06840F42B
:101A10008070C8600846C06840F40070C8607047B5
:101A200070B50546002400BF04E0285D03F07AFA93
:101A3000601C84B22846FEF773FEA042F5DC70BD40
:101A400070B504460D4603E0207803F06BFA641C81
:101A50002800A5F101018DB2F6D170BD002100BFB3
:101A600023E0E148405C4F2806D1DF4A481C105C67
:101A70004B2801D112207047DB48405C452812D129
:101A8000D94A481C105C52280DD1881C105C522881
:101A900009D1C81C105C4F2805D1081D105C5228C4
:101AA00001D11120E7E7481CC1B28029D9DB102001
:101AB000E1E770B505460C4603F03DFA2846FFF70E
:101AC000AFFF0020C94908804FF08040008840F0F7
:101AD00001004FF08041088007E0C54800780528E4
:101AE00003DD0A20FEF782FC03E0C0480088A04224
:101AF000F3DB00BF4FF08040008820F001004FF082
:101B000080410880B9480088A04221DA0120B94903
:101B10000860FFF7A3FFB84908700846007812284C
:101B200006D1B6A003F0D4FD0120BB4908600BE04C
:101B3000B1480078112806D1B8A003F0C9FD0020F3
:101B4000B549086000E000BFA74803F02CF907E0A2
:101B50000020A9490870A7490860B849C1F8B80130
:101B600070BD10B500240020B54908604FF4FA702C
:101B7000FEF73CFC0120B349C1F8A4016420FEF744
:101B800035FC0020B04908604FF4FA70FEF72EFCD7
:101B90000120AC49C1F8A00103F0CDF90020934920
:101BA00008804FF08040008840F001004FF08041F5
:101BB000088007E08E480078052803DD0520FEF741
:101BC00015FC03E0894800886428F3DB00BF4FF070
:101BD0008040008820F001004FF080410880834859
:101BE0000088642821DA002418E07F48005D53282B
:101BF00012D17D49601C085C59280DD1A01C085CDD
:101C0000532809D112207C490870012082490860BC
:101C10008A49C1F8B00103E0601CC4B2802CE4DB47
:101C200000BF714803F0BFF807E000207249087058
:101C3000704908608149C1F8B8016F4800781228DE
:101C400009D182A003F044FD322182A0FFF731FFC9
:101C50000120FEF7CBFB68480078122809D17FA04D
:101C600003F036FD322180A0FFF723FF0120FEF7AD
:101C7000BDFB61480078122809D17EA003F028FD41
:101C800032217EA0FFF715FF0120FEF7AFFB03F026
:101C900052F90020554908804FF08040008840F0FC
:101CA00001004FF08041088007E051480078072884
:101CB00003DD0520FEF79AFB04E04C480088B0F5F0
:101CC000167FF2DB00BF4FF08040008820F001005B
:101CD0004FF08041088045480088B0F5167F36DA1D
:101CE00000242DE04048005D432810D13E49601C8F
:101CF000085C52280BD1A01C085C452807D1E01CC9
:101D0000085C472803D1A01D085C312804D036495F
:101D1000A01D085C352811D10120364908604749CB
:101D2000C1F8B8014FF012003349087055A24FF0C6
:101D300001014FF00200FEF79EFE03E0601CC4B2FA
:101D4000642CCFDB00BF284803F02DF80DE0002005
:101D50002949087050A201210220FEF78CFE0020C4
:101D6000244908603549C1F8B80110BD10B503F029
:101D7000E2F84EA0FFF754FE00201C4908804FF007
:101D80008040008840F001004FF08041088007E06B
:101D900017480078082803DD0520FEF727FB03E03D
:101DA000124800883228F3DB00BF4FF080400088E3
:101DB00020F001004FF0804108800C480088322854
:101DC0007ADA01200B4908601C49C1F8B8014FF0CC
:101DD000120009490870044802F0E5FF74E06BE066
:101DE0000010024000100140780000201C0000207C
:101DF00008000020B0812142380000205265636550
:101E0000697665206D6F64656C206D6573736167BD
:101E100065204F4B210A0000B8812142526563655D
:101E2000697665206D6F64656C206D65737361679D
:101E300065204552524F52210A0000000080214285
:101E4000A401224200002242A00122424154453016
:101E50000A000000415445300D0A000041542B4354
:101E60005245473D310A000041542B435245473DFE
:101E7000310D0A00415426570A00000041542657EC
:101E80000D0A0000475052532020202020202020FF
:101E900020202059000000004750525320202020CD
:101EA000202020202020204E0000000041542B4301
:101EB00053510D0A000000000020FB490870FB4947
:101EC0000860FB49C1F8B80110BD10B503F033F844
:101ED000F8A0FFF7A5FD0020F94908804FF08040E9
:101EE000008840F001004FF08041088007E0F5488D
:101EF00000780F2803DD3220FEF778FA04E0F0487E
:101F00000088B0F5167FF2DB00BF4FF080400088FC
:101F100020F001004FF080410880E9480088B0F5CA
:101F2000167F25DA0120E1490860FFF797FDDE49B9
:101F30000870E44800781E2809DAE3A003F0C8FB23
:101F40001220D94908700120E34908600CE0DD48FF
:101F500000781E2808DB1120D34908700020DE49D4
:101F60000860DEA003F0B4FBE04802F01CFF07E0CD
:101F70000020CD490870CD490860CD49C1F8B801AD
:101F800010BD10B5C8480078122809D1D8A003F0B8
:101F90009FFB3221DCA0FFF78CFD0120FEF726FA23
:101FA000C1480078122809D1DEA003F091FB32214C
:101FB000E0A0FFF77EFD0120FEF718FABA4800788E
:101FC000122809D1E1A003F083FB3221E3A0FFF73F
:101FD00070FD0120FEF70AFAB3480078122809D1F3
:101FE000E4A003F075FB3221E7A0FFF762FD0120BA
:101FF000FEF7FCF9AC480078122809D1E8A003F0FC
:1020000067FB3221ECA0FFF754FD0120FEF7EEF94B
:10201000A5480078122809D1EEA003F059FB32211F
:10202000F0A0FFF746FD0120FEF7E0F99E4800789A
:1020300012287ED1F0480078642190FBF1F0303016
:10204000EE490870EC480078642190FBF1F201FB46
:1020500012000A2190FBF1F03030E8494870E64860
:1020600000780A2190FBF1F201FB12003030E349C5
:102070008870E1484078642190FBF1F03030DF490E
:102080000871DD484078642190FBF1F201FB1200F9
:102090000A2190FBF1F03030D8494871D648407899
:1020A0000A2190FBF1F201FB12003030D349887114
:1020B000D1488078642190FBF1F03030CF4908722C
:1020C000CD488078642190FBF1F201FB12000A21D7
:1020D00090FBF1F03030C9494872C74880780A2136
:1020E00090FBF1F201FB12003030C4498872C24803
:1020F000C078642190FBF1F03030C0490873BE48CD
:10210000C078642190FBF1F201FB12000A2190FBE0
:10211000F1F03030B9494873B748C0780A2190FBD4
:10212000F1F201FB12003030B4498873B2480079F3
:1021300000E03AE00A2190FBF1F03030AF4908743A
:10214000AD4800790A2190FBF1F201FB120030301A
:10215000AA494874A84840790A2190FBF1F0303030
:10216000A6498874A44840790A2190FBF1F201FB4A
:1021700012003030A149C874A1A003F0A9FAA4A0AC
:10218000FFF74EFC222002F0CDFEA6A0FFF748FC90
:102190009A48FFF745FC222002F0C4FE64218CA07F
:1021A000FFF787FC0120FEF721F93F48007812284D
:1021B00009D19FA003F08CFAFFF787FE0A20FEF7F3
:1021C00015F902F0B8FE10BD70B505460C4600BF0B
:1021D00020783038642148436178303901EB81013F
:1021E00000EB4101A0783038084486B23F4802F045
:1021F000DAFD02F0A0FE93A003F06AFA97A0FFF7C1
:102200000FFC2046FFF70CFC71A0FFF709FC002033
:102210002B4908804FF08040008840F001004FF0CB
:102220008041088007E0274800780A2803DD052060
:10223000FEF7DCF803E0224800886428F3DB00BFE7
:102240004FF08040008820F001004FF0804108806E
:102250001B48008864280CDA1220134908700120FA
:10226000124908601249C1F8B801204802F09BFDEC
:1022700007E000200C4908700C4908600C49C1F8BF
:10228000B80102F058FE31462846FFF7D9FB00207E
:102290000B4908804FF08040008840F001004FF06B
:1022A00080410880E8E0000038000020B081214231
:1022B0000080214241545E5349534F3D310D0A0085
:1022C0001C000020080000204F70656E20706F72A7
:1022D00074204F4B20210A00B88121425365727649
:1022E000657220636C6F736564210A0078000020BA
:1022F000536574204750525320776F726B206D6F77
:1023000064656C0A0000000041545E534943533D2C
:10231000302C636F6E547970652C47505253300DDA
:102320000A0000005365742047505253206E616DBF
:1023300065200A0041545E534943533D302C757368
:1023400065722C677072730D0A000000536574206B
:102350004750525320636F64650A000041545E5336
:102360004943533D302C7061737377642C677072EE
:10237000730D0A0053657447505253206F70657295
:1023800061746F720A00000041545E534943533D2B
:10239000302C61706E2C636D6E65740D0A00000048
:1023A000536574204750525320547970652053650B
:1023B000727665720A00000041545E534953533DE2
:1023C000312C737276547970652C736F636B6574FE
:1023D0000D0A0000536574204750525320492E4483
:1023E0002E200A0041545E534953533D312C636FF4
:1023F0006E49642C300D0A000F00002021000020DF
:10240000536574204750525320492E502E200A0005
:1024100041545E534953533D312C6164647265737A
:10242000732C0000736F636B7463703A2F2F00007E
:102430005365742047505253206F70656E20706F43
:1024400072740A0053656E64696E672067707273F8
:10245000206D657373616765210A000041545E5306
:102460004953573D312C0000A54800780A2803DD68
:102470001420FDF7BBFF03E0A24800886428F3DBCB
:1024800000BF4FF08040008820F001004FF08041F5
:1024900008809C48008864281DDAFFF7DFFA9A4913
:1024A00008709A4802F07FFC02F045FD012098492F
:1024B000086095480078122806D1012095490860E7
:1024C00095A003F005F90EE00020924908609AA05B
:1024D00003F0FEF807E000208B4908708C49086083
:1024E0009C49C1F8B80170BD10B50446874802F098
:1024F0005AFC02F020FD98A003F0EAF899A0FFF73B
:102500008FFA00207F4908804FF08040008840F01B
:1025100001004FF08041088007E0794800780A28E0
:1025200003DD0520FDF762FF03E07648008864289C
:10253000F3DB00BF4FF08040008820F001004FF037
:10254000804108806F480088642806DA6F4802F0EE
:102550002AFC01206E49086004E000206A490870E6
:102560006B49086002F0E7FC204602F0DBFC00202B
:10257000644908804FF08040008840F001004FF02F
:102580008041088007E05E4800780A2803DD1420B7
:10259000FDF72CFF03E05B4800886428F3DB00BFF5
:1025A0004FF08040008820F001004FF0804108800B
:1025B00054480088642823DA0120554908605348AC
:1025C00002F0F1FBFFF74AFA4F490870084600781D
:1025D00012280AD167A003F07BF801204D4908605A
:1025E0004FF012004849087012E000204949086085
:1025F0004FF011004449087064A003F069F807E047
:10260000002041490870424908605249C1F8B801A8
:1026100010BD10B5002402F08EFC61A0FFF700FA97
:1026200062A0FFF7FDF9AFF25820FFF7F9F900209B
:10263000344908804FF08040008840F001004FF09E
:102640008041088007E02E480078142803DD14201C
:10265000FDF7CCFE03E02B4800886428F3DB00BFC5
:102660004FF08040008820F001004FF0804108804A
:1026700024480088642831DA0120254908604FF099
:102680001200214908704AA003F022F81F4802F006
:102690008AFB00241FE01D48005D2F2819D11B492B
:1026A000601C085C432814D1A01C085C2F2810D1A2
:1026B00004F11400085CCC280BD10846011915223E
:1026C000404803F0A9F840A003F002F802F099FE98
:1026D00003E0601CC4B2802CDDDB04E000200A496A
:1026E00008700B49086010BD10B53DA002F0F0FF66
:1026F000322140A0FFF7DDF90120FDF777FE10BD84
:10270000080000201C000020380000207800002075
:10271000B0812142B881214253656E642067707296
:1027200073206D65737361676520636F6D706C6591
:102730007465210A0000000053656E6420677072A2
:1027400073206D657373616765206572726F7221A6
:102750000A00000000802142486561727462656170
:1027600074210A0041545E534953573D312C310DB9
:102770000A00000048656172746265617420636FCD
:102780006D706C657465210A000000004865617217
:102790007462656174204552524F52210A00000054
:1027A00041545E534953523D312C000031303000CA
:1027B000546865204D6573736167652069733A0AD3
:1027C000000000001D0100205772696768742073C3
:1027D0007461727420616E6420656E64210A000069
:1027E000436C6F7365204750525320706F72742191
:1027F0000A00000041545E534953433D310D0A0025
:10280000A748806940F01000A5498861A548006884
:102810000020A449086008460068A3490843A1496C
:1028200008600846C06840F0F000C860704700B516
:1028300000239C48006800209A4908600846006808
:102840009A490843974908600846C06840F0F0007C
:10285000C86008468068C0F303120E2A01D1012324
:102860000CE00D2A01D1022308E00B2A01D1032339
:1028700004E0072A01D1042300E00023FFF7C0FF92
:10288000184600BD10B5022200211046FDF750FE8B
:10289000022201211046FDF74BFE0222114610468E
:1028A000FDF746FE022203211046FDF741FE0223FA
:1028B000062219460320FDF7EEFD022307221946E2
:1028C0000320FDF7E8FD0223082219460320FDF747
:1028D000E2FD0223092219460320FDF7DCFD10BDAD
:1028E00010B500247248006820F00E007149C1F84C
:1028F00000044FF00A00FDF779FDFFF798FF04464A
:10290000002C1ADD012C06D0022C08D0032C0AD092
:10291000042C10D10BE03120674908700CE0322004
:102920006549087008E033206349087004E05520C9
:102930006149087000E000BF00BF01205F490860E6
:102940005C48D0F8000440F00F005949086010BD01
:1029500010B500245648006820F00D005549C1F814
:1029600000044FF00A00FDF741FDFFF760FF044649
:10297000002C1ADD012C06D0022C08D0032C0AD022
:10298000042C10D10BE034204B4908700CE03520AA
:102990004949087008E036204749087004E044209F
:1029A0004549087000E000BF00BF022043490860AD
:1029B0004048D0F8000440F00F003D49086010BDC9
:1029C00010B500243A48006820F00B003949C1F8DE
:1029D00000044FF00A00FDF709FDFFF728FF044649
:1029E000002C1ADD012C06D0022C08D0032C0AD0B2
:1029F000042C10D10BE037202F4908700CE0382050
:102A00002D49087008E039202B49087004E0532054
:102A10002949087000E000BF00BF04202749086072
:102A20002448D0F8000440F00F002149086010BD90
:102A300010B500241E48006820F007001D49C1F8A9
:102A400000044FF00A00FDF7D1FCFFF7F0FE04464A
:102A5000002C1ADD012C06D0022C08D0032C0AD041
:102A6000042C10D10BE04320134908700CE03020F7
:102A70001149087008E04C200F49087004E0452017
:102A80000D49087000E000BF00BF08200B49086036
:102A90000848D0F8000440F00F000549086010BD58
:102AA0000010024000100140888833333333888897
:102AB00000040140000001400B000020140401400C
:102AC000F0B503460C461546642093FBF0F0C6B201
:102AD000642093FBF0F700FB1730C1B2132E02DD28
:102AE00001F16400C1B20846CF1701EB977701EB03
:102AF000A702072092FBF0F700FB172082B25719BC
:102B0000601EDFF86CC41CF80000384482B2CF1796
:102B100001EB9777BF10B1EB870703D1032C01DAE4
:102B2000501E82B2072092FBF0F700FB1720C0B2C4
:102B3000F0BD0146CA1701EB92729210B1EB82020E
:102B400012D1642091FBF0F200FB121050B94FF447
:102B5000C87091FBF0F200FB121008B90120704719
:102B60000020FCE70120FAE70020F8E770B5002616
:102B700000240025FF4806884FEA0646FE48B0F8C4
:102B80001C080644FD48B6FBF0F4FD480088A0424E
:102B90003AD0FB490C8040F2B2750EE02846FFF7B0
:102BA000C8FF30B1B4F5B77F02D3A4F5B77402E023
:102BB00006E0A4F26D14681C85B2B4F5B67FEDD8BA
:102BC00000BFF0488580002516E0EE498888FFF7B1
:102BD000B0FF30B1012D04D11D2C01D31D3C09E003
:102BE0000CE0E948405DA04203D8E748405D241A64
:102BF00000E003E0681C85B21C2CE6D200BF681C14
:102C0000E0498871601CC871DC48B6FBF0F100FB3C
:102C100011644FF46160B4FBF0F0DA4908704FF4CE
:102C20006160B4FBF0F100FB11403C21B0FBF1F01E
:102C3000D44948704FF46160B4FBF0F100FB1140DF
:102C40003C21B0FBF1F201FB1200CE4988700B462B
:102C5000DA7999799888FFF733FFCA49087200201A
:102C600070BD2DE9F04705460E4617469846DDE94A
:102C7000089A002340F2B270854203DB40F633002D
:102C8000854202DD0120BDE8F08740F2B2740AE01F
:102C90002046FFF74EFF10B1BC48034401E0BC489A
:102CA0000344601C84B2AC42F2DB701EC6B2002446
:102CB00010E0B548005D40F2A321484303EBC01388
:102CC0002846FFF736FF18B1012C01D1AB48034469
:102CD000601C84B2B442ECDB781E40F2A32148436E
:102CE00003EBC013C8EB4810C0EB082003EB001344
:102CF000C9EB091003EB80035344A648C06940F0B8
:102D00008050A449C8610846C06940F00060C861AD
:102D1000A148006840F480709F4908609F4800887F
:102D200040F010009449A1F804089D490B804FEA37
:102D300013409149A1F818080846B0F8040820F09B
:102D40001000A1F8040800BF9448008810F0200F7C
:102D5000FAD0002097E770B50346002409E013F885
:102D6000015B11F8016BB54201D0002070BD601C01
:102D7000C4B29442F3DB0120F8E72DE9FE470024BA
:102D800006E088480068005D02A90855601CC4B2CE
:102D9000032CF6DB00240BE004EB4401824A881884
:102DA000032202A9FFF7D7FF00B103E0601CC4B201
:102DB0000C2CF1DB00BF601CC6B27A4800680079B9
:102DC000202805D17748006840793038C5B20BE03B
:102DD00074480068417973480068007930380A22E5
:102DE00002FB00103038C5B26E480068C079303838
:102DF0004FF47A7148436B490968097A3039642283
:102E000002FB010167480068407A30380A2202FB61
:102E1000001064490968897A0844303887B26348E9
:102E200000684178614800680078303802FB001083
:102E3000303800F0FF0A5D48006801795B4800689F
:102E4000C078303802FB0010303800F0FF095748D6
:102E50000068C179554800688079303802FB00105D
:102E6000303800F0FF0853462A4631463846CDE94F
:102E70000098FFF7F6FEBDE8FE8710B500244C4829
:102E80000088A0F5A041503971D04248C06940F097
:102E900080504049C8610846C06940F00060C86180
:102EA0003D48006840F480703B4908603948006A3A
:102EB00040F48030374908620846006A20F48030C8
:102EC00008620846006A40F00100086204E0601CE5
:102ED000C4B20A20FDF78AFA2E48006A10F0020FE9
:102EE00001D1FA2CF3DBFA2C01DB012010BD2948BB
:102EF000006A40F48070274908620846006A40F47E
:102F00000040086200BF2548008810F0200FFAD06A
:102F100000BF2248008810F0080FFAD0254800882A
:102F200040F001001449A1F8000800BF1B480088C8
:102F300010F0200FFAD01948008840F010000E4918
:102F4000A1F804084FF000001B49088047F6FF7005
:102F50000949A1F80C08FFF710FF0748B0F804086A
:102F600020F010000449A1F8040800BF26E02FE07B
:102F70001E60000818280040002000408051010019
:102F800074000020B20100202A6000080085E201E0
:102F90008033E1010010024000700040042800402E
:102FA0001C280040000000203660000804000020BB
:102FB000046C004000280040082800402548008894
:102FC00010F0200FD2D045F250002349088012E0C3
:102FD00000BF2048008810F0080FFAD01F48008872
:102FE00040F001001E49A1F8000800BF1948008800
:102FF00010F0200FFAD00223032200210846FDF72B
:103000004AFAFFF7B3FD002070E700B511480088C9
:1030100010F0010F01D0FFF7A9FD0E48008810F055
:10302000020F06D00B48008820F002000C49A1F8DE
:1030300004080848008840F6FA7100EA01000849CF
:10304000A1F8040800BF0348008810F0200FFAD050
:1030500000BD000004280040046C0040002800402F
:103060000020004010B5FDF7FCFC50A20221012019
:10307000FDF701FD51A201210320FDF7FCFC8A2090
:10308000FDF785FC10BD10B5FDF7EBFC4EA202214B
:103090000120FDF7F0FC49A201210320FDF7EBFC24
:1030A0008A20FDF774FC10BD10B5FDF7DAFC4AA2CA
:1030B00003210120FDF7DFFC4AA201210220FDF7D8
:1030C000DAFC4CA201210320FDF7D5FC4CA2012122
:1030D0000420FDF7D0FC9220FDF759FC10BD10B57F
:1030E000FDF7BFFC49A203210120FDF7C4FC4AA261
:1030F00001210220FDF7BFFC4AA201210320FDF7B8
:10310000BAFC4BA201210420FDF7B5FC9220FDF78B
:103110003EFC10BD10B5FDF7A4FC48A20221012021
:10312000FDF7A9FC49A201210320FDF7A4FC4CA254
:1031300001210420FDF79FFC10BD10B5FDF791FCA7
:103140004AA202210120FDF796FC4CA20121022097
:10315000FDF791FC4DA202210320FDF78CFC10BD70
:1031600010B5FDF77EFC4CA203210120FDF783FC86
:103170004CA202210320FDF77EFC10BD10B5FDF727
:1031800070FC4BA203210120FDF775FC45A2022132
:103190000320FDF770FC10BD10B5FDF762FC47A2DF
:1031A00001210846FDF767FC10BD0000475052534F
:1031B000B5C44944C9E8D6C3000000004944A3BAD5
:1031C0002A202A202A200000D6D5B6CBB5C44944EF
:1031D000C9E8D6C300000000C8D5C6DAC9E8D6C31E
:1031E00000000000C4EAA3BA2A202A202A202A20AC
:1031F00000000000D4C2A3BA2A202A200000000048
:10320000C8D5A3BA2A202A2000000000CAB1BCE415
:10321000C9E8D6C300000000CAB1A3BA2A202A20F8
:1032200020000000B7D6A3BA2A202A200000000000
:10323000C3EBA3BA2A202A2000000000B7FECEF17B
:10324000C6F74950C9E8D6C3000000002A2A2A2E32
:103250002A2A2A2E2A2A2A2E2A2A2A200000000078
:10326000B6CBBFDAA3BA2A2A2A2A2000C7EBCAE4BF
:10327000C8EB4354B1C8D6B500000000C8E7A3BAF4
:10328000303230412F3032306D4100002A2A2A413D
:103290002F2A2A2A6D410000C1ACBDD3CDF8C2E768
:1032A000A3BF0000535552452F43414E53454C0098
:1032B000B6CFBFAACDF8C2E7A3BF0000C7EBCAE4F0
:1032C000C8EBD0C2C3DCC2EB3A0000007CB50024DE
:1032D0000025FF4909788931C8B2FDF758FBFC4841
:1032E0000078062803DA0E20FDF751FB02E00C20DF
:1032F000FDF74DFBF748007830281CDBF5480078D7
:10330000392818DCF2480078062810DAA320FDF7E7
:1033100064FBAA20FDF761FBEE480078EE49EC4A19
:1033200012788854EA480078401CE9490870002067
:10333000E849087094E0E7480078452875D10020F6
:10334000E4490870E54800780A2190FBF1F030303C
:10335000C0B28DF80000E148007890FBF1F201FB6B
:1033600012003030C0B28DF80100DC48407890FB8C
:10337000F1F03030C0B28DF80200D848407890FBB0
:10338000F1F201FB12003030C0B28DF80300D348D7
:10339000807890FBF1F03030C0B28DF80400CF4857
:1033A000807890FBF1F201FB12003030C0B28DF852
:1033B000050000240CE0C848005D1DF80410884298
:1033C00004D1681CC5B22020C3490855601CC4B292
:1033D000062CF0DB062D08D12220C1490870FDF72C
:1033E00069FE0020BA4908703AE0FDF73AFBBDA239
:1033F00002210120FDF73FFBBEA202210320FDF7C1
:103400003AFB4FF47A70FCF7F1FF4FF47A70FCF757
:10341000EDFF2120B24908700020AD490870FDF78A
:1034200020FBFDF73EFE1BE0FFE7AA48007843289B
:1034300015D10020A7490870A54908701020A84997
:103440000870FDF70EFBFDF781FD002404E020204D
:10345000A1490855601CC4B2062CF8DB00E000BF8F
:103460007CBD10B59A480078032803DA0E20FDF7DA
:103470008EFA02E00C20FDF78AFA96480078302890
:103480005BDB94480078392857DC914800780328A2
:103490004FDA8F480078C8B98E480078332848DA68
:1034A0008A20FDF774FAA320FDF797FA8949097875
:1034B0008031C8B2FDF791FA8648007886490870D5
:1034C00083480078401C8249087032E080480078C8
:1034D000012815D18B20FDF75AFAA320FDF77DFABC
:1034E0007C4909788031C8B2FDF777FA79480078CD
:1034F0007949487076480078401C7549087018E092
:1035000073480078022814D18C20FDF740FAA320DC
:10351000FDF763FA6F4909788031C8B2FDF75DFAAB
:103520006C4800786C49887069480078401C68498C
:10353000087000206749087041E066480078452817
:103540002BD163480078032827D1002061490870F7
:10355000614800783038642148435F494978303900
:1035600001EB810100EB41015B4880783038084471
:1035700064490870084601780020FDF7EAFF6148B9
:10358000017861A002F0A4F8222055490870FDF7E7
:1035900091FD00204E49087011E04E480078432804
:1035A0000AD100204B4908704949087022204C4933
:1035B0000870FDF77FFD02E000204649087010BD4D
:1035C00010B543480078032803DA0E20FDF7DFF931
:1035D00002E00C20FDF7DBF93E48007830285BDB89
:1035E0003C480078392857DC3948007803284FDAFE
:1035F00037480078C8B937480078332848DA8A2035
:10360000FDF7C5F9A320FDF7E8F9324909788031C3
:10361000C8B2FDF7E2F92F4800782F4908702C480E
:103620000078401C2A49087032E0294800780128B7
:1036300015D18B20FDF7ABF9A320FDF7CEF9254975
:1036400009788031C8B2FDF7C8F9224800782249CC
:1036500048701F480078401C1D49087018E01C483D
:103660000078022814D18C20FDF791F9A320FDF7F2
:10367000B4F9184909788031C8B2FDF7AEF9154898
:1036800000781549887012480078401C104908706D
:1036900000201049087064E00E48007845284ED19B
:1036A0000B48007803284AD100200A4908700A48CC
:1036B000007830386421484307494978303901EBB4
:1036C000810100EB4101044880783038084421E052
:1036D0000C0000200B0000200D0100201500002030
:1036E0000A000020C3DCC2EBCAE4C8EBB4EDCEF3A1
:1036F00000000000C7EBD6D8D0C2CAE4C8EBA3A133
:10370000000000000D000020736574206769643AB2
:1037100025640A00FF490870084601780120FDF77A
:1037200018FFFC480178FCA001F0D2FF2220FD49DF
:103730000870FDF7BFFC0020FB49087011E0FB4852
:10374000007843280AD10020F8490870F64908702B
:103750002220F4490870FDF7ADFC02E00020F34997
:10376000087010BD7CB5F0480078082803DA0E20F8
:10377000FDF70DF902E00C20FDF709F9EB480078A0
:10378000302871DBE948007839286DDCE64800789C
:10379000082817DAE4480078A8B99220FDF7F7F86E
:1037A000A320FDF71AF9E14909788031C8B2FDF785
:1037B00014F9DE480078DE490870DB480078401CC8
:1037C000D9490870E0E1D8480078012815D1932044
:1037D000FDF7DDF8A320FDF700F9D4490978803121
:1037E000C8B2FDF7FAF8D1480078D1494870CE4800
:1037F0000078401CCC490870C6E1CB48007802280C
:1038000015D19420FDF7C3F8A320FDF7E6F8C749CA
:1038100009788031C8B2FDF7E0F8C4480078C4499F
:103820008870C1480078401CBF490870ACE1BE48B0
:103830000078032819D19520FDF7A9F8A320FDF7FA
:10384000CCF8BA4909788031C8B2FDF7C6F88A20A9
:10385000FDF79DF8B5480078B549C870B2480078C2
:10386000401CB14908708FE192E1AF48007804280C
:103870001BD1AE480078322815DA8A20FDF787F888
:10388000A320FDF7AAF8A94909788031C8B2FDF74D
:10389000A4F8A6480078A6490871A3480078401CFF
:1038A000A149087070E100BF6EE19F4800780528CB
:1038B00045D19F48007931281CD19C480078332895
:1038C00018DA8B20FDF763F8A320FDF786F89749F7
:1038D00009788031C8B2FDF780F89448007894499F
:1038E00048719A20FDF753F88F480078401C8E49A4
:1038F000087049E18E48007930281FD18B48007844
:1039000039281BDC89480078302817DD8B20FDF72B
:103910003EF8A320FDF761F8844909788031C8B2E8
:10392000FDF75BF881480078814948719A20FDF7DE
:103930002EF87D480078401C7B49087024E17A48C5
:10394000007806283AD17A484079303878490979A0
:10395000303901EB810100EB4100C4B2022C16D0DA
:1039600072480078342811DAA320FDF736F86F4941
:1039700009788031C8B2FDF730F86C4800786C499E
:10398000887169480078401C67490870FCE0674806
:103990000078332811DAA320FDF71FF8634909786E
:1039A0008031C8B2FDF719F8604800786049887125
:1039B0005D480078401C5C490870E5E05A48007892
:1039C00007283FD15A48007830384FF47A7148437D
:1039D00057494978303901EBC10202EB011100EB84
:1039E000810153488078303800EB800001EB4001C2
:1039F0004F48C07830380D184D48407930384C4920
:103A00000979303901EB810100EB4100C4B2022C8D
:103A10005DD0042C05D0062C03D0092C01D00B2C32
:103A20002AD143488079332803D140480078302890
:103A300007DC3F488079302805D13C4800783028A1
:103A400001D100BFA0E09B20FCF7A1FFA320FCF761
:103A5000C4FF364909788031C8B2FCF7BEFF202088
:103A6000FCF7BBFF314800783149C8712E48007817
:103A7000401C2D49087087E02D488079332803D1F8
:103A80002A480078312807DC29488079302805D178
:103A900026480078302801D100BF75E09B20FCF754
:103AA00076FFA320FCF799FF204909788031C8B23E
:103AB000FCF793FF2020FCF790FF1C4800781C497E
:103AC000C87119480078401C174908705CE06420F0
:103AD000B5FBF0F100FB1150D8B115F0030F29D15F
:103AE0009B20FCF754FFA320FCF777FF0F490978D0
:103AF0008031C8B2FCF771FF2020FCF76EFF0B4845
:103B000000780B49C87108480078401C06490870C5
:103B10003AE00FE00E000020736574207469643A87
:103B200025640A000A0000200C0000200B00002081
:103B30000D010020FE488079322803D1FD4800782D
:103B4000392807D0FA488079302805D1F94800781B
:103B5000302801D100BF17E09B20FCF718FFA320FD
:103B6000FCF73BFFF34909788031C8B2FCF735FF19
:103B70002020FCF732FFEF480078ED49C871EE488D
:103B80000078401CEC4908700020EA49087060E0A9
:103B9000E848007845284AD1E7480078082846D107
:103BA0000020E4490870E248007830384FF47A7118
:103BB0004843DF494978303901EBC10202EB01117A
:103BC00000EB8101DA488078303800EB800001EBAF
:103BD0004001D748C07830380D18D5484079303882
:103BE000D3490979303901EB810100EB4100C4B2BE
:103BF000CF48C0793038CE498979303901EB81011D
:103C000000EB4100C6B2CD4883784278CDE900236D
:103C1000037832462146A8B2FFF723F82220C8498C
:103C20000870FDF747FA0020C349087011E0C14849
:103C3000007843280AD10020BE490870BE490870A8
:103C40002220BF490870FDF735FA02E00020B9498B
:103C500008707CBD7CB5B8480078062803DA0E20D1
:103C6000FCF795FE02E00C20FCF791FEB1480078CD
:103C700030287EDBAF48007839287ADCAE480078FF
:103C800006281BDAAC480078D8B9AA48007833284F
:103C900015DA9220FCF77BFEA320FCF79EFEA549D7
:103CA00009788031C8B2FCF798FEA2480078A04994
:103CB0000870A1480078401C9F490870A0E000BF30
:103CC0009EE09D480078012822D19948007832284A
:103CD00005D198480078332801DD00BF90E093209B
:103CE000FCF755FEA320FCF778FE92490978803155
:103CF000C8B2FCF772FE8A20FCF749FE8D480078B6
:103D00008B4948708C480078401C8B49087077E0DC
:103D10008948007802281BD186480078362815DAB1
:103D20008A20FCF734FEA320FCF757FE814909786E
:103D30008031C8B2FCF751FE7E4800787C4988701B
:103D40007D480078401C7C49087059E000BF57E06E
:103D50007948007803281AD18B20FCF718FEA3209D
:103D6000FCF73BFE734909788031C8B2FCF735FE99
:103D700000E049E09A20FCF70AFE6E4800786C49A2
:103D8000C8706D480078401C6B49087038E06A487C
:103D9000007804281BD167480078362815DA9A2065
:103DA000FCF7F5FDA320FCF718FE62490978803185
:103DB000C8B2FCF712FE5F4800785D4908715E48A2
:103DC0000078401C5C4908701AE000BF18E05A48AF
:103DD0000078052814D19B20FCF7D9FDA320FCF71F
:103DE000FCFD544909788031C8B2FCF7F6FD514812
:103DF00000784F49487150480078401C4E4908707F
:103E000000204C4908704FE04A480078452839D1D5
:103E100049480078062835D10020464908704448B2
:103E20004078303842490978303901EB810100EBA4
:103E30004100C4B23E48C07830383D4989783039B5
:103E400001EB810100EB4100C5B2394840793038BF
:103E500037490979303901EB810100EB4100C6B2E5
:103E6000364BCDE90056DA79997998882346FEF7E2
:103E7000F8FE222032490870FDF71CF900202E4977
:103E8000087011E02B48007843280AD10020294906
:103E9000087029490870222029490870FDF70AF99D
:103EA00002E00020234908707CBD10B5214800784D
:103EB00030287DDB1F480078392879DC1E480078DF
:103EC000102816DA1C480078A0B91A480078332860
:103ED0000FDA8820FCF75BFD16480078FCF77DFDC3
:103EE000144800781249087013480078401C1249A1
:103EF0000870CBE210480078012840D10C480078C7
:103F000032281FDA8820FCF742FD09490878FCF7BF
:103F100064FD08480078FCF760FD06480078044915
:103F2000487005480078401C03490870AEE2000064
:103F30000D0100200B0000200C000020B201002029
:103F40000A000020FB480078322817D1FA48007890
:103F5000362813DA8820FCF71AFDF6490878FCF7B2
:103F60003CFDF5480078FCF738FDF3480078F1494E
:103F70004870F2480078401CF049087086E2EF482B
:103F80000078022847D1EB480078322811DA8920DE
:103F9000FCF7FDFCE8480078FCF71FFDE6480078D8
:103FA000E4498870E5480078401CE44908706DE2F7
:103FB00070E2E0480078322813D1DE484078352896
:103FC00010DA8920FCF7E3FCDB480078FCF705FDFC
:103FD000D9480078D7498870D8480078401CD7491C
:103FE000087053E2D3484078352813D1D24800787E
:103FF00036280FDA8920FCF7CAFCCF480078FCF796
:10400000ECFCCD480078CB498870CC480078401C47
:10401000CA4908703AE2C9480078032814D1C64852
:10402000007833280FDA8A20FCF7B1FCC248007808
:10403000FCF7D3FCC0480078BE49C870BF48007880
:10404000401CBE49087021E2BC480078042835D1E4
:10405000B848C078322814DA8A20FCF798FCB549B1
:10406000C878FCF7BAFCB4480078FCF7B6FCB24854
:104070000078B0490871B1480078401CAF49087019
:1040800004E2AC48C078322817D1AB480078362813
:1040900013DA8A20FCF77BFCA649C878FCF79DFC64
:1040A000A5480078FCF799FCA3480078A14908715D
:1040B000A2480078401CA1490870E7E19F480078B9
:1040C000052846D19B48C078322810DA8B20FCF7AF
:1040D0005EFC99480078FCF780FC97480078954989
:1040E000487196480078401C94490870CEE1914888
:1040F000C078322813D18F480079352810DA8B2008
:10410000FCF745FC8C480078FCF767FC8A4800788F
:104110008849487189480078401C88490870B5E191
:1041200084480079352813D18348007836280FDA7F
:104130008B20FCF72CFC80480078FCF74EFC7E4876
:1041400000787C4948717D480078401C7B490870A4
:104150009CE17A480078062814D177480078332803
:104160000FDA8C20FCF713FC73480078FCF735FC61
:10417000714800786F49887170480078401C6F4919
:10418000087083E16D480078072835D16948807947
:10419000322814DA8C20FCF7FAFB66498879FCF7A0
:1041A0001CFC65480078FCF718FC634800786149FE
:1041B000C87162480078401C6049087066E15D483B
:1041C0008079322817D15C480078362813DA8C20A1
:1041D000FCF7DDFB57498879FCF7FFFB5648007870
:1041E000FCF7FBFB544800785249C87153480078EB
:1041F000401C5249087049E150480078082846D1CF
:104200004C488079322810DA8D20FCF7C0FB4A48F0
:104210000078FCF7E2FB48480078464908724748B6
:104220000078401C4549087030E1424880793228C6
:1042300013D14048C079352810DA8D20FCF7A7FB50
:104240003D480078FCF7C9FB3B48007839490872C3
:104250003A480078401C3949087017E13548C07960
:10426000352813D13448007836280FDA8D20FCF732
:104270008EFB31480078FCF7B0FB2F4800782D49C1
:1042800008722E480078401C2C490870FEE02B482C
:104290000078092814D12848007833280FDA8E20B6
:1042A000FCF775FB24480078FCF797FB2248007860
:1042B0002049487221480078401C20490870E5E0F8
:1042C0001E4800780A283BD11A48407A322814DA6E
:1042D0008E20FCF75CFB1749487AFCF77EFB1648FA
:1042E0000078FCF77AFB144800781249887213486A
:1042F0000078401C11490870C8E00E48407A322806
:1043000017D10D480078362813DA8E20FCF73FFBD2
:104310000849487AFCF761FB07480078FCF75DFB29
:10432000054800780349887204480078401C034916
:104330000870ABE00D0100200B0000200C000020F5
:10434000FF4800780B2846D1FE48407A322810DA20
:104350008F20FCF71CFBFC480078FCF73EFBFA487A
:104360000078F849C872F6480078401CF449087093
:104370008CE0F448407A322813D1F248807A35280C
:1043800010DA8F20FCF703FBEF480078FCF725FBE1
:10439000ED480078EB49C872E9480078401CE849CC
:1043A000087073E0E748807A35286FD1E6480078D6
:1043B00036286BDA8F20FCF7EAFAE3480078FCF73E
:1043C0000CFBE1480078DF49C872DD480078401CEA
:1043D000DB4908705AE0DA4800780C2810D19B209D
:1043E000FCF7D5FAD8480078FCF7F7FAD6480078F9
:1043F000D4490873D2480078401CD149087045E080
:10440000CF4800780D2814D19B20FCF7C0FACD4985
:10441000087BFCF7E2FACC480078FCF7DEFACA48E1
:104420000078C8494873C6480078401CC4490870E1
:104430002CE0C34800780E2810D19C20FCF7A7FA86
:10444000C1480078FCF7C9FABF480078BD498873B5
:10445000BB480078401CBA49087017E0B84800789B
:104460000F2813D19C20FCF792FAB649887BFCF701
:10447000B4FAB5480078FCF7B0FAB3480078B1490F
:10448000C873AF480078401CAD4908700020AE49A1
:1044900008708EE0AC480078452878D1A8480078AC
:1044A000102874D10020A8490870A6480078303838
:1044B00064214843A3494978303901EB810100EB7D
:1044C0004101A048807830380844A04908709D48D0
:1044D000C0783038642148439A490979303901EB72
:1044E000810100EB410197484079303808449749F1
:1044F0004870944880793038642148439149C9799B
:10450000303901EB810100EB41018E48007A3038EF
:1045100008448E4988708B48407A3038642148437B
:104520008849897A303901EB810100EB41018548E6
:10453000C07A303808448549C8708248407B30389A
:104540008049097B303901EB810100EB41007F4953
:1045500008717C48C07B30387A49897B303901EB5F
:10456000810100EB41007949487106220220FDF7E4
:1045700077F8764976A001F0ABF8232077490870E8
:10458000FCF7B0FD00206E49087012E0FFE76E48AE
:10459000007843280AD100206B49087068490870E8
:1045A00023206E490870FCF79DFD02E0002066495B
:1045B000087010BD10B56448007830287BDB624875
:1045C000007839287DDC5E480078062875DA5C487A
:1045D000007880B98920FCF7DAF95B480078FCF7AD
:1045E000FCF9594800785749087055480078401C34
:1045F0005349087061E05248007801280DD15248B3
:104600000078FCF7EAF9504800784E4948704C4869
:104610000078401C4A4908704FE049480078022859
:104620000DD149480078FCF7D8F94748007845494A
:10463000887043480078401C414908703DE040487C
:104640000078032813D18B20FCF7A1F92F20FCF769
:10465000C4F93D480078FCF7C0F93B480078394977
:10466000C87037480078401C3549087025E0344848
:10467000007804280DD134480078FCF7AEF93248B0
:104680000078304908712E480078401C2C49087089
:1046900013E02B48007805280ED12B480078FCF752
:1046A0009CF9294800782749487125480078401C22
:1046B0002349087001E004E000BF0020224908708F
:1046C0009EE02148007845287ED100201E490870D0
:1046D0001B480078062862D11A48007830382049F3
:1046E000087018488078303816494978303901EB1D
:1046F000810100EB41001A4948701248C0783038F7
:1047000088701048407930380E490979303901EB0A
:10471000810100EB41001249C87004220B20FCF714
:104720009FFF0F490FA000F0D3FFFCF79AF910A2EA
:1047300002210846FCF79FF94FF47A7020E0000050
:104740000C0000200D0100200B0000200F000020B5
:104750007365742069703D25730A00000A0000200B
:10476000180000207365742063743A25730A0000F2
:104770004354D6B5C9E8D6C3B3C9B9A600000000F2
:10478000FBF734FE4FF47A70FBF730FE2320FA4932
:104790000870FCF7A7FC0020F849087030E0FCF72F
:1047A00060F9F7A202210846FCF765F9F8A2032197
:1047B0000846FCF760F94FF47A70FBF717FE4FF4E8
:1047C0007A70FBF713FE00E008E00020EB49087068
:1047D0003620E9490870FEF7B0FC11E0EF48007898
:1047E00043280AD10020ED490870E44908702320CD
:1047F000E1490870FCF776FC02E00020E749087008
:1048000010BD10B5E548007843284ED0452855D155
:10481000FCF727F91220E2490870E2A202210120E8
:10482000FCF729F9E3A202210320FCF724F9FDF7A4
:10483000A8FBDB48007812281FD1E2A20221032046
:10484000FCF719F900F0A0FD0020E2490880E248D9
:10485000008840F001004FF08041A1F800044FF4BF
:104860007A70FBF7C3FD4FF47A70FBF7BFFD23208E
:10487000C1490870FCF736FC13E0D8A202210320DE
:10488000FCF7F9F84FF47A70FBF7B0FD4FF47A704B
:10489000FBF7ACFD1020B8490870FCF7E2F8FCF714
:1048A00055FB0020BD4908700CE00020BB49087092
:1048B0002320B1490870FCF715FC03E00020B7493C
:1048C000087000BF00BF10BD10B5B4480078432881
:1048D00049D0452850D1FCF7C4F8C4A202210120D8
:1048E000FCF7C9F8B3A202210320FCF7C4F8FDF7D6
:1048F000FBFEAB48007812281DD1C0A20221032084
:10490000FCF7B9F80020B3490880B348008820F0CC
:1049100001004FF08041A1F800044FF47A70FBF7DA
:1049200065FD4FF47A70FBF761FD23209249087012
:10493000FCF7D8FB13E0B5A202210320FCF79BF89B
:104940004FF47A70FBF752FD4FF47A70FBF74EFD8F
:10495000102089490870FCF784F8FCF7F7FA00206A
:104960008E4908700CE000208C4908702320824991
:104970000870FCF7B7FB03E000208849087000BF0F
:1049800000BF10BD70B5002400257C4800780C28BD
:104990000DDA0E20FBF7FBFF78480078062809DACD
:1049A000764909789131C8B2FBF7F1FF02E00C209B
:1049B000FBF7EDFF7948007830282BDB774800784B
:1049C000392827DC6D4800780C281FDAA320FCF773
:1049D00004F8AA20FCF701F8704800788F49674A6C
:1049E0001278885465480078401C6449087008466D
:1049F000007806280AD18AA201210320FCF73BF89F
:104A00005E4909789331C8B2FBF7C1FF00206349C2
:104A1000087024E16148007845287ED100205F4974
:104A20000870002412E07D48015D0246A01D105C64
:104A3000814209D11046005D302805DB1046005D3B
:104A4000392801DC681CC5B2601CC4B2062CEADB44
:104A5000062D4AD1242048490870704840783038E3
:104A60006E490978303901EB810100EB4100704952
:104A700008706A48C078303868498978303901EB65
:104A8000810100EB41006A49487064484079303840
:104A900062490979303901EB810100EB4100644939
:104AA000887003220820FCF7DBFD002033490870E2
:104AB000002404E0202059490855601CC4B20C2C85
:104AC000F8DBFBF7CEFF5BA201210220FBF7D3FF4F
:104AD0004FF47A70FBF78AFC4FF47A70FBF786FC90
:104AE000FBF7BFFFFCF716FBB9E0002404E0202031
:104AF0004A490855601CC4B20C2CF8DB39201E4909
:104B0000087000201D490870FBF7ABFF4DA2012182
:104B10000220FBF7B0FF504A00E010E00221032022
:104B2000FBF7A9FF4FF47A70FBF760FC4FF47A7043
:104B3000FBF75CFCFBF795FFFEF72EFB8FE01748B9
:104B40000078432816D100201449087024200A490F
:104B50000870002009490870002404E020202F4933
:104B60000855601CC4B20C2CF8DBFBF77AFFFCF78D
:104B7000D1FA74E072E000000A0000200C0000206E
:104B80004354D6B5C9E8D6C3CAA7B0DC00000000BC
:104B9000D6D8D0C2CAE4C8EB000000000B00002049
:104BA00038000020D5FDD4DAC1ACBDD3CDF8C2E7C2
:104BB000000000002E2E2E2EC9D4B5C82E2E2E2E6B
:104BC00000000000C1ACBDD3B3C9B9A6212020208C
:104BD000000000003600002000040040C1ACBDD33E
:104BE000CAA7B0DC2120202000000000D5FDD4DAC7
:104BF000B6CFBFAACDF8C2E700000000B6CFCDF80F
:104C0000B3C9B9A62120202000000000B6CFCDF8FE
:104C1000CAA7B0DC21202020000000000D010020E8
:104C2000C7EBD4D9CAE4C8EBD2BBB4CEA3BA000058
:104C300015000020C3DCC2EBC9E8D6C3B3C9B9A6CE
:104C4000A3A10000CAE4C8EBC3DCC2EBB2BBD2BB79
:104C5000D6C2A3A100000000F436000800BF70BD5A
:104C600070B504460D464548C06940F0010043490F
:104C7000C861880484850585808940F00100890425
:104C800088810846808940F04000888102231C22E8
:104C900003210120FBF7FFFB70BD4FF08040008A2D
:104CA00010F0010F04D036480088401C34490880B9
:104CB0004FF08040008A20F001004FF080410882D0
:104CC000704770B504460D462C48C06940F002009C
:104CD0002A49C8612B4804804FF08040A0F828542E
:104CE000B0F80C0440F001004FF08041A1F80C0432
:104CF0000846B0F80C0440F04000A1F80C044FF056
:104D000002034FF01D024FF003014FF00100FBF7CB
:104D1000C2FB70BD1C48008810F0010F24D01B4856
:104D20000088401C194908800846008878280DD062
:104D300008460088F02809D008460088B0F5B47FFE
:104D400004D008460088B0F5F07F02D11220104947
:104D500008700E480088B0F5167F05DB12200C495C
:104D600008700020094908800748008820F00100E9
:104D70004FF08041A1F8100470470000001002407D
:104D80001C0000202C0400401004004036000020CD
:104D900020000020D449088000BFD449098811F0C0
:104DA000400FFAD0704770B50546002400BF04E0FC
:104DB000285DFFF7EFFF601C84B22846FBF7B0FCCC
:104DC000A042F5DC70BD2DE9F05F05460E463001CE
:104DD00000F0BEFF8146C64905FB01F000F0B8FFB8
:104DE0008246494600F0D2FE0746384600F090FF62
:104DF00084B2204600F0ACFF8346394601F08FF8BC
:104E000082464FF0834100F0B7FF814600F080FFFB
:104E10008046240104EB080084B2B648806940F063
:104E20000400B44988610846C06940F40030C86194
:104E3000B148006820F47F40B049C1F80008084636
:104E4000D0F8000840F40B40C1F80008A9480069F8
:104E500040F40030A74908610846006920F400309A
:104E600008614FF04020A0F80844A548008842F2AD
:104E70000C0140EA01004FF04021A1F80C04084663
:104E8000B0F8000400F04000A1F800040846B0F8B3
:104E90000C0440F48070A1F80C040846B0F80C042F
:104EA00040F02000964908804FF002034FF02602A0
:104EB00019464FF00100FBF7EEFABDE8F09F91486C
:104EC000008810F0200F2CD08F4800888F49904A1E
:104ED0001278885408468E490978405C312815D1EB
:104EE0008B48007808388949085C49280ED18848E1
:104EF0000078C01F085C532808D185480078801FBF
:104F0000085C522802D1112082490870804800783C
:104F1000401C7F490870084600787F2801DD00208A
:104F2000087070477849088000BF7649098811F0F9
:104F3000400FFAD07047002000BF04E00021734A00
:104F40001154411CC8B28028F8DB0021704A11704E
:104F500070472DE9F05F05460E46300100F0F8FE7F
:104F60008146634905FB01F000F0F2FE82464946A6
:104F700000F00CFE0746384600F0CAFE84B2204618
:104F800000F0E6FE8346394600F0C9FF82464FF046
:104F9000834100F0F1FE814600F0BAFE8046240114
:104FA00004EB080084B25348806940F0080051497E
:104FB00088610846C06940F48020C861564800688E
:104FC00020F47F404D49C1F8040C0846D0F8040C89
:104FD00040F40B40C1F8040C4648006940F48020BE
:104FE000444908610846006920F4802008614FF0B8
:104FF0004020A0F808484948008842F20C0140EAE5
:1050000001004FF04021A1F80C080846B0F8000854
:1050100000F04000A1F800080846B0F80C0840F481
:105020008070A1F80C080846B0F80C0840F0200089
:105030003A4908804FF002034FF0270219461846FC
:10504000FBF729FABDE8F09F3548008810F0200FE3
:1050500024D0344800883449344A1278885433487C
:10506000007800F1010031490870084600781528E1
:1050700001DB002008702C4800782F280ED12A4828
:1050800040782F280AD1284880782F2806D1264832
:10509000007DCC2802D11120254908707047214994
:1050A000088000BF1E49098811F0400FFAD07047F0
:1050B00010B503460C46002200BF04E0985CFFF7E1
:1050C000EEFF501C82B2A242F8DB10BD002000BFF0
:1050D00004E00021144A1154411CC8B21528F8DB21
:1050E0000021124A11707047043801400038014015
:1050F00040420F0000100240000801400000014043
:105100000C4400400044004004440040780000206B
:105110000800002020000020040C01400C48004042
:1051200000480040044800404701002009000020DA
:105130001E0000200D48806940F008000B4988617E
:105140000B48006820F00F000A49C1F8000C08461F
:10515000D0F8000C40F00300C1F8000C0846D0F86D
:105160000C0C40F00100C1F80C0C7047001002401C
:10517000000C0140000001400A48806940F008002E
:10518000084988610848006880B20849C1F8040CE1
:1051900005480068064940EA01000449C1F8040CCA
:1051A0007047000000100240040C01400000014064
:1051B0000000333310B54F204D4908703F20487030
:1051C0002F20887015224B4800F026FBFFF77EFF4A
:1051D00015214848FFF76CFF0020474908804FF031
:1051E0008040008840F001004FF08041088007E0D7
:1051F00042480078022803DD0120FBF7F7F803E0BE
:105200003D4800883228F3DB00BF4FF08040008823
:1052100020F001004FF08041088037480088322894
:105220002FDA374800782F2815D1354840783F28A5
:1052300011D1334880784F280DD132A000F048FAC0
:1052400035A201210846FBF716FC012037490870FA
:10525000374908600CE037A000F03AFA3BA2012180
:105260000846FBF708FC0020314908602F49087008
:105270003BA000F02DFA2248FFF795FDFFF726FF2F
:1052800009E032A201210846FBF7F5FB002028497E
:1052900008602649087010BD10B5024600230020A2
:1052A00000BF04E014786040521C5C1CA3B28B4227
:1052B000F8DB10BD10B5152211492F4800F0ACFAEB
:1052C00011212D48C01CFFF7E7FF70B915222A49AC
:1052D0002A4800F0A1FA15222849294800F09CFA32
:1052E00028A12748FCF770FF00E000BF10BD0000B8
:1052F0004C0000205C0100201C0000200900002060
:10530000470100207A696762656520636865636BA1
:10531000206F6B210A0000005A4947424545202072
:105320002020202020202059000000001F00002005
:10533000B48121427A696762656520636865636B41
:105340002077726F6E67210A000000005A494742B9
:1053500045452020202020202020204E0000000055
:105360007A69676265652072656365697665206D37
:105370006573736167653A003201002039000020CF
:10538000F80000203032310010B52F209A49087003
:105390004870887099480078C870CC20087198A12E
:1053A0009548FCF711FF10BD10B5964800781228FB
:1053B00013D11020944908709448FFF7F4FCFFF7CC
:1053C000BAFD93A000F084F9FDF723F90020964977
:1053D000088096A000F07CF902E010208A4908704D
:1053E00010BD10B587480078122806D110208649D4
:1053F00008701F20FDF778F802E01020824908703D
:1054000010BD10B5904800797C49097888427BD15D
:1054100015228D498D4800F0FFF910218B48C01CE2
:10542000FFF73AFF8949C8741522894800F0F4F95A
:1054300015218748FFF73CFE0020864908804FF081
:105440008040008840F001004FF080410880FFF765
:105450003DFE07E0804800780F2803DD3220FAF790
:10546000C5FF03E07B4800883228F3DB00BF4FF024
:105470008040008820F001004FF08041088075488E
:10548000008832287EDA15227449754800F0C4F984
:10549000724800782F2839D17048007DCC2835D14A
:1054A00011216F48C01CFFF7F7FE70BB10206D493B
:1054B00008706D486A490A6802604A6842608968F3
:1054C00081606748407B684908736548807B487302
:1054D00008466349D1F80F10C0F80E105B48007DF4
:1054E000614988741322444800F096F95FA142484C
:1054F000FCF76AFE01205E4908605EA000F0E8F853
:105500000020634908703BE073E0FFE71220554933
:10551000087060A000F0DCF85D480078401C5C4931
:10552000087001205249086059480078042827DB98
:1055300010204C4908704C49494802680A6042688A
:105540004A6080688860312088704548407B0873D5
:105550004348807B487308464149D1F80F10C0F892
:105560000E103A48007D404988741322224800F00A
:1055700053F93EA12048FCF727FE0020444908705B
:105580004CA000E00AE000F0A3F80120FAF72EFF9B
:105590003248FFF708FCFFF799FD2BE01020314956
:1055A000087031492E4802680A6042684A60806883
:1055B0008860312088702A48407B08732848807BA7
:1055C000487308462649D1F80F10C0F80E101F483E
:1055D000007D254988741322074800F01DF923A196
:1055E0000548FCF7F1FD00202149086028490870B2
:1055F00000E000BF10BD0000F80000200D000020FA
:1056000030303500380000202000002078000020D5
:10561000526563656976652047505253204D657326
:1056200073616765210A000036000020475052531D
:10563000204D657373616765206861766520646FCE
:105640006E65210A000000001D0100204C000020B2
:105650005C0100201C000020090000204701002000
:10566000320100201E0000203900002030313900B6
:10567000B481214252656365697665207A69676203
:10568000656520636865636B204F4B210A0000004D
:105690007600002052656365697665207A696762E5
:1056A000656520636865636B206572726F72210A9D
:1056B000000000005A696762656520726574757242
:1056C0006E206D6573736167653A0A00704700006C
:1056D0000FB4044910B503AA029800F057F910BCA2
:1056E0005DF814FB6C0000202DE9F04104460E46E5
:1056F00000200AE0E1682046884738B3252806D014
:10570000D4E901219047206A401C2062F2E7E16859
:10571000204600278847050018D0A5F14100192828
:1057200002D820354FF400673246294620462760CC
:10573000FAF716FD40B1012804D0F61D26F0070641
:105740000836D7E7361DD5E72846D9E7206ABDE8F1
:10575000F08170B505460C46012A05D02868800600
:1057600000D5EA69002302E0012305E05B1C9342B7
:1057700002D2E05C0028F9D1A869E618C01AA86135
:10578000286A184428622846AFF3008004E0D5E96F
:10579000012114F8010B9047B442F8D32846AFF327
:1057A000008070BD2DE9F041804600261068752903
:1057B000414615A512D0AFF30080002803DAC0F1EE
:1057C000000012A508E0D8F800108A0701D510A53E
:1057D00002E0490704D50FA5012601E0AFF30080E0
:1057E000002408F1240704E000F014F930313955A1
:1057F000641C0028F8D133462A4621464046BDE8BD
:10580000F04100F052B80000000000002D00000040
:105810002B00000020000000032A40F2308010F02E
:10582000030C00F0158011F8013BBCF1020F62443B
:1058300098BF11F801CB00F8013B38BF11F8013BCC
:10584000A2F1040298BF00F801CB38BF00F8013B79
:1058500011F0030300F0AC80083AC0F0088051F862
:10586000043B083A51F804CBA0E80810F5E7121DF4
:105870005CBF51F8043B40F8043BAFF30080D20713
:1058800024BF11F8013B11F801CB48BF11F8012BDF
:1058900024BF00F8013B00F801CB48BF00F8012B02
:1058A000704770477047704770472DE9F0470D46C5
:1058B00004469246994600F124080168880604D5FA
:1058C000E06921F01001216000E001200027A842DA
:1058D00001DDA0EB0507A16907EB050202EB030060
:1058E000A1EB0000A0612068C00602D42046AFF3FF
:1058F0000080002608E0D4E901211AF8060090474C
:10590000206A401C761C20624E45F4DB2068C006ED
:105910000AD52046AFF3008006E0D4E9012130200B
:105920009047206A401C2062381EA7F10107F4DC72
:1059300007E0D4E9012118F805009047206A401CCF
:105940002062281EA5F10105F3DC2046AFF300809C
:1059500021680220090600D40120BDE8F08710B5B7
:10596000436913B1AFF3008001E0FFF7F2FE0120BD
:1059700010BD126800F124010A7000224A70012251
:10598000EDE711684FF0FF32E9E70000074B70B513
:105990000C467B4400F04BF80546204600F05AF8D0
:1059A00010B14FF0FF3070BD284670BDEDADFFFF68
:1059B00010B5203AC0F00B80B1E81850203AA0E8AA
:1059C0001850B1E81850A0E81850BFF4F5AF5FEADE
:1059D000027C24BFB1E81850A0E8185044BF18C991
:1059E00018C0BDE810405FEA827C24BF51F8043B38
:1059F00040F8043B08BF7047D20728BF31F8023B8C
:105A000048BF11F8012B28BF20F8023B48BF00F81F
:105A1000012B70474FF00A01B0FBF1F202FB1101BC
:105A20001046704701694A1C02610878704700B54A
:105A30008FB0CDE901310021059105497944CDE9C7
:105A4000031011466846FFF74FFE0FB000BD00007F
:105A5000E5FFFFFFC06800F080007047754600F06A
:105A600029F8AE4605006946534620F007008546F2
:105A700018B020B5FAF7A0FBBDE820404FF00006B3
:105A80004FF000074FF000084FF0000B21F0070126
:105A9000AC46ACE8C009ACE8C009ACE8C009ACE869
:105AA000C0098D4670470446AFF300802046FAF7E0
:105AB0006EFB000000487047BC01002001487047A1
:105AC000704700BFC001002090EA010F48BF81F07D
:105AD000004100F13682421A3CBF801A89184FEA11
