:020000040800F2
:1000000080040020A1010008A5010008A701000844
:10001000A9010008AB010008AD01000800000000C4
:10002000000000000000000000000000AF01000818
:10003000B101000800000000B3010008B50100088C
:10004000B7010008B7010008B7010008511D0008FA
:10005000B7010008B7010008B7010008B7010008A0
:10006000B7010008B7010008B7010008B701000890
:10007000B7010008B7010008B7010008B701000880
:10008000B7010008B7010008B7010008B701000870
:10009000B7010008B7010008B7010008B701000860
:1000A000B7010008B7010008B7010008B701000850
:1000B000E114000805140008B7010008B7010008A2
:1000C000B7010008B7010008B7010008B701000830
:1000D000B701000871050008CB070008B701000848
:1000E000B7010008B7010008B701000800F002F8E6
:1000F00000F047F80AA090E8000C82448344AAF17B
:100100000107DA4501D100F03CF8AFF2090EBAE878
:100110000F0013F0010F18BFFB1A43F0010318473B
:10012000F428000014290000103A24BF78C878C1D0
:10013000FAD8520724BF30C830C144BF04680C60ED
:10014000704700000023002400250026103A28BF35
:1001500078C1FBD8520728BF30C148BF0B60704739
:10016000642901F03987782901F06E87732902F03C
:100170003D80002070471FB5AFF300801FBD10B554
:1001800010BD02F03FF81146FFF7F5FF01F00AFE3F
:1001900002F05DF8FFF7F3FF00F0DCF930BF00007C
:1001A00008480047FEE7FEE7FEE7FEE7FEE7FEE75A
:1001B000FEE7FEE7FEE7FEE703480449024A044B78
:1001C00070470000ED00000880020020800400203D
:1001D000800200204FF0E021096921F004014FF076
:1001E000E02211610146C21700EB5272D2101F4B80
:1001F0001A70194609784FF47A7251439A1C11808B
:1002000070471A4A921C128842434FF0E0235A6109
:1002100000229A6101221A6100BF4FF0E0221169A9
:1002200011F0010F02D011F4803FF6D000224FF000
:10023000E0231A619A6170470C4A127842434FF0EA
:10024000E0235A6100229A6101221A6100BF4FF037
:10025000E022116911F0010F02D011F4803FF6D0B5
:1002600000224FF0E0231A619A61704700000020DD
:10027000AC4A0A400243AC4B1A607047072323EA9A
:1002800000021202A84B1B1D19684FF6FF0319400C
:10029000A64B194311434FF0E023C3F80C1D7047E0
:1002A0002DE9F04704460D4616461F463046F11725
:1002B00006EB91714FEAA109F11706EB91718910D4
:1002C000A6EB810101F0FF0A042101EBCA0000F056
:1002D000FF0A3846FFF7D2FFC7F1040004FA00F81E
:1002E0000F203841284040EA080808F00F08202E67
:1002F00009DA8F4800680121B14008434FF0E0213E
:10030000C1F800010BE08A48001D0168A6F1200237
:100310000120904001434FF0E020C0F804118548CF
:1003200050F8290008FA0AF10143824840F82910E0
:10033000BDE8F08770B50D46CE1701EB9676B31089
:10034000CE1701EB9676B610A1EB8606B606340EF4
:10035000794DAD6945F00105774EB5614FEAB63587
:1003600055F823600F25A540AE43744D45F8236032
:1003700055F8235000FA04F63543704E46F82350E2
:100380006F4D2E6801258D402E436C4D083DC5F8FC
:10039000006412F0010F09D0694D0C352E6801255B
:1003A0008D402E43654D083DC5F80C6412F0020FD8
:1003B00009D0634D08352E6801258D402E435F4DD1
:1003C000083DC5F8086470BD00B500205A490861B1
:1003D000C8601420486100208861C8610846006830
:1003E00040F00100086008464068564908405249FC
:1003F000486008460068544908404F49086008466C
:10040000006820F4802008600846406820F4FE0060
:1004100048600020886000214FF00060FFF728FF4F
:1004200000BD10B540480830006840F004004FF0AF
:10043000E021C1F8100D4048C06940F080503E49AD
:10044000C8614248406840F48070404948600846AE
:10045000006840F0040008600846006840F00200B0
:100460000860FFF79BFE10BD3048001D2E49091D96
:10047000086070470146084649062F4A926942F0D3
:1004800001022D4B9A612D4A083A526822F0E0622F
:100490002A4B083B5A601A4652680A435A60704712
:1004A00030B504460025FFF78FFF2348006840F46D
:1004B00080302149086000BF1F480068400CFBD015
:1004C0004FF480601C494860A01EC4B208464068D2
:1004D00040EA844048600846406840F48030486004
:1004E0001B48006840F03200194908601248006853
:1004F00040F080701049086000BF0F480068400E4F
:10050000FBD00D48406840F002000B49486005E010
:1005100009484068C0F3870505F00305022DF7D1AF
:1005200030BD000080FFFF1F08ED00E00000FA056D
:1005300000E100E000E400E000100240080001409B
:10054000000401400000FFF8FFFFF6FE00700040CD
:1005500000200240014600BF704700BF5A4A12887F
:1005600012F0400FFAD0C2B2574B1B1D1A807047D1
:100570005549098811F0200F34D05349091D0988C5
:10058000C8B25249097811F0800F2BD14F49097830
:1005900011F0400F0CD00A2803D000214B4A1170F3
:1005A00020E04A49097841F08001484A117019E079
:1005B0000D2806D14549097841F04001434A1170A0
:1005C00010E04249097801F03F01414A50543F4947
:1005D0000978491C3D4A1170114609783F2901DD0F
:1005E0000021117070472DE9F05F04460D46280187
:1005F00001F0FBFF8146374904FB01F001F0F5FFF4
:100600008246494601F0BAFE0646304601F0A8FF90
:1006100087B2384601F0E9FF8346314602F093F88D
:1006200082464FF0834101F0E5FF814601F098FFDB
:1006300080463F0107EB080087B22748806940F0F9
:100640000400254988610846806940F4804088613B
:100650002248006820F47F602149C1F80408084658
:10066000D0F8040840F40B60C1F804081A48C068C8
:1006700040F480401849C8600846C06820F48040B3
:10068000C8601848A0F808780F480C30008842F27B
:100690000C0108431349A1F80C080846B0F80C08EF
:1006A00040F48070A1F80C080846B0F80C0840F03F
:1006B000200005490C310880022325220321084629
:1006C000FFF7EEFDBDE8F09F003801400400002078
:1006D0005000002040420F0000100240040801407A
:1006E00000000140003001402DE9F05F04460D4656
:1006F000280101F07AFF8146FB4904FB01F001F07B
:1007000074FF8246494601F039FE0646304601F044
:1007100027FF87B2384601F068FF8346314602F072
:1007200012F882464FF0834101F064FF814601F0E8
:1007300017FF80463F0107EB080087B2EB4880694E
:1007400040F00400E94988610846C06940F400307F
:10075000C861E748006820F47F40E649C1F8000816
:100760000846D0F8000840F40B40C1F80008DF4804
:10077000006940F40030DD4908610846006920F452
:10078000003008614FF04020A0F80874DA48008873
:1007900042F20C0108434FF04021A1F80C04084636
:1007A000B0F80C0440F48070A1F80C040846B0F8CE
:1007B0000C0440F02000D04908800223262219466C
:1007C0000120FFF76DFDBDE8F09FCB480C38008895
:1007D00010F0200F2DD0C84808380088C749C84AF3
:1007E000127888540846C6490978405C522815D1C9
:1007F000C3480078C01EC149085C53280ED1C048C8
:100800000078801E085C492808D1BD480078401E49
:10081000085C532802D10120BA490870B848007812
:10082000401CB7490870084600787F2801DD002089
:1008300008707047002000BF04E00021AF4A115447
:10084000411CC8B28028F8DB0021AD4A1170704706
:10085000A9490839088000BFA7490C39098811F057
:10086000400FF9D0704700B51A20FFF7F1FF00BD27
:1008700070B50446002500BF04E0605DFFF7E8FFA7
:10088000681C85B2204601F00DFCA842F5D870BD69
:10089000002000BF27E09949095C4F2908D1974AF9
:1008A000411C515C4B2903D10221974A11701CE075
:1008B0009249095C452914D1904A411C515C522946
:1008C0000FD1811C515C52290BD1C11C515C4F29A5
:1008D00007D1011D515C522903D101218A4A1170AF
:1008E00003E0411CC8B28028D5DB00BF704700215F
:1008F00000BF14E08148405C53280ED17F4A481C59
:10090000105C492809D1881C105C532805D1C81CEB
:10091000105C572801D101207047481CC1B205293D
:10092000E8DB0020F8E7002100BF20E07348405CCE
:1009300043281AD1714A481C105C522815D1881CD2
:10094000105C452811D1C81C105C47280DD1081D2A
:10095000105C3A2809D1481D105C202805D1881D5B
:10096000105C352801D101207047481CC1B26429B0
:10097000DCDB0020F8E770B504460D462046FFF7A3
:1009800077FF4FF08040008840F001004FF0804139
:10099000088007E05A480078052803DD0120FFF7AA
:1009A00030FC03E059480088A842F3DB00BF5748F9
:1009B0000088A84202DB0020534908704FF08040B5
:1009C000008820F001004FF08041088000204F494E
:1009D0000880FFF75DFF494800F084FCFFF72AFF1D
:1009E00070BD10B500240020494908604FF4FA702A
:1009F000FFF707FC01204749C1F89C016420FFF77D
:100A000000FC00204249091F08604FF4FA70FFF70C
:100A1000F8FB01203F49C1F89801FFF70BFF4FF0A9
:100A20008040008840F001004FF08041088007E0DE
:100A300033480078052803DD0120FFF7E2FB03E0DF
:100A4000324800886428F3DB00BF304800886428FF
:100A500002DB00202C4908704FF08040008820F015
:100A600001004FF0804108800020284908800024C0
:100A700012E02248005D53280CD12049601C085C1C
:100A8000592807D1A01C085C532803D102201E4915
:100A9000087003E0601CC4B2802CEADB00BF17487A
:100AA00000F020FCFFF7C6FE17480078022806D1A8
:100AB000322119A0FFF75FFF0120FFF7A2FB1248C8
:100AC0000078022806D1322115A0FFF754FF01203B
:100AD000FFF797FB4FF08040008840F001004FF097
:100AE000804108802AE0000040420F0000100240D0
:100AF00000080140000001400C4400409A00002022
:100B00003200002037000020360000204E00002078
:100B10009C01224200002242415445300D0A00004F
:100B200041542B435245473D310D0A00F8480078A7
:100B3000052803DD0120FFF764FB03E0F54800888A
:100B40006428F3DB00BFF3480088642802DB002040
:100B5000F14908704FF08040008820F001004FF00C
:100B6000804108800020EB490880002416E0EB4813
:100B7000005D432810D1E949601C085C52280BD164
:100B8000A01C085C452807D1E01C085C472803D15D
:100B90000220E149087003E0601CC4B27F2CE6DB50
:100BA00000BFDE4800F09EFBFFF744FE10BD10B50D
:100BB000DBA0FFF75DFE4FF08040008840F00100B1
:100BC0004FF08041088007E0D1480078082803DD15
:100BD0000120FFF716FB03E0CE4800883228F3DB44
:100BE00000BFCC480088322802DB0020CA490870C8
:100BF0004FF08040008820F001004FF080410880D5
:100C00000020C4490880C54800F06CFBFFF712FEC5
:100C100010BD10B5C5A0FFF72BFE4FF08040008837
:100C200040F001004FF08041088007E0B8480078AC
:100C30000A2803DD0120FFF7E4FA04E0B548008844
:100C4000B0F5167FF2DB00BFB2480088B0F5167F22
:100C500002DB0020B04908704FF08040008820F08F
:100C600001004FF0804108800020AA490880FFF76A
:100C70000FFEFFF73CFEA94800F034FBFFF7DAFD5A
:100C800010BD10B5A4480078022806D13221AAA0D0
:100C9000FFF771FE0120FFF7B4FA9F4800780228A1
:100CA00006D13221ABA0FFF766FE0120FFF7A9FABB
:100CB00099480078022806D13221ACA0FFF75BFEEC
:100CC0000120FFF79EFA94480078022806D13221CD
:100CD000ACA0FFF750FE0120FFF793FA8E48007892
:100CE000022806D13221ADA0FFF745FE0120FFF713
:100CF00088FA89480078022806D13221AEA0FFF791
:100D00003AFE0120FFF77DFA83480078022815D1CA
:100D1000AEA0FFF7ADFD2220FFF79AFDB0A0FFF7D0
:100D2000A7FDB248FFF7A4FD2220FFF791FD322175
:100D3000A0A0FFF720FE0120FFF763FA76480078B5
:100D4000022804D1FFF765FF0120FFF75AFA10BD12
:100D500070B504460D46A6A0FFF78AFD2846FFF7AA
:100D600087FD94A0FFF784FD4FF08040008840F09D
:100D700001004FF08041088007E0654800780828AE
:100D800003DD0120FFF73DFA03E062480088642894
:100D9000F3DB00BF5F480088642802DB00205E4967
:100DA00008704FF08040008820F001004FF0804133
:100DB0000880002057490880584800F093FAFFF750
:100DC00039FD2046FFF754FD4FF08040008840F089
:100DD00001004FF08041088007E04D4800780A2864
:100DE00003DD0120FFF70DFA03E04A48008864287C
:100DF000F3DB00BF47480088642802DB0020464937
:100E000008704FF08040008820F001004FF08041D2
:100E1000088000203F490880FFF73AFD3E480078EF
:100E2000022803D101207549087004E000207349AD
:100E3000087039490870394800F054FAFFF7FAFC95
:100E400070BD10B56EA0FFF713FD4FF08040008815
:100E500040F001004FF08041088007E02C48007806
:100E6000082803DD0120FFF7CCF903E029480088BA
:100E70006428F3DB00BF27480088642802DB0020D9
:100E8000254908704FF08040008820F001004FF0A5
:100E90008041088000201F490880204800F022FA85
:100EA000FFF7C8FC1F20FFF7D3FC4FF080400088FD
:100EB00040F001004FF08041088007E014480078BE
:100EC0000A2803DD0120FFF79CF903E011480088A0
:100ED0006428F3DB00BF0F480088642802DB002091
:100EE0000D4908704FF08040008820F001004FF05D
:100EF00080410880002007490880FFF7C9FC0648A8
:100F00000078022803D101203C49087085E07FE089
:100F1000320000204E000020360000209A00002001
:100F200041542B4353510D0A0000000041545E53BD
:100F300049534F3D310D0A0041545E534943533DDF
:100F4000302C636F6E547970652C47505253300DBE
:100F50000A00000041545E534943533D302C7573E1
:100F600065722C677072730D0A00000041545E5365
:100F70004943533D302C7061737377642C677072F2
:100F8000730D0A0041545E534943533D302C617048
:100F90006E2C636D6E65740D0A00000041545E5343
:100FA0004953533D312C737276547970652C736FAD
:100FB000636B65740D0A000041545E534953533D01
:100FC000312C636F6E49642C300D0A0041545E531E
:100FD0004953533D312C616464726573732C000076
:100FE000736F636B7463703A2F2F00001C00002036
:100FF00041545E534953573D312C00003A000020C4
:1010000041545E534953573D312C310D0A000000C5
:1010100000209349087093490870934800F062F9E2
:10102000FFF708FC10BD10B58E480078022806D1E5
:1010300032218EA0FFF79FFC0120FFF7E2F810BDE0
:1010400010B5044600208C4908600120FFF7D9F84C
:10105000204600F081FA0220FFF7D3F8302000F09C
:101060007BFA312803D185A000F046FF02E088A07A
:1010700000F042FF0220FFF7C4F801207E4908601B
:101080006420FFF7D9F810BD10B58348C078213827
:1010900006284ED2DFE800F003172B3B4B4C012013
:1010A0007549103108607C480079212803D141201E
:1010B000FFF7C6FF06E078480079222802D14020D9
:1010C000FFF7BEFF36E000206B4910310860724820
:1010D0000079212803D15120FFF7B2FF06E06E48C6
:1010E0000079222802D15020FFF7AAFF22E06A48A7
:1010F0000079212803D16120FFF7A2FF06E06648AE
:101100000079222802D16020FFF79AFF12E062489E
:101110000079212803D17120FFF792FF06E05E4895
:101120000079222802D17020FFF78AFF02E001E057
:1011300000E000BF00BF10BD10B5574800787B2805
:101140001ED1554840797D281AD1534880783038CF
:1011500051494978303901EB810100EB4100C4B2BB
:1011600034B1012C05D0022C06D0032C06D104E0AA
:1011700005E0FFF789FF02E001E000E000BF00BFEB
:1011800010BD70B5002400250026FFF753FB43A0D7
:10119000FFF76EFB4448FFF76BFBAFF2E810FFF779
:1011A00067FB4FF08040008840F001004FF0804125
:1011B000088007E03D480078142803DD0A20FFF787
:1011C00020F803E03A4800886428F3DB00BF384881
:1011D0000088642802DB0020224908704FF080401C
:1011E000008820F001004FF0804108800020304945
:1011F0000880FFF74DFB1B480078022803D101202F
:101200002C49087004E000202A490870154908702C
:10121000002413E01448005D7B2801D0012E06D184
:1012200001261148005D1C494855681CC5B20E488E
:10123000005D7D2800D10026601CC4B2802CE9DB53
:10124000FFF77AFF084800F04DF8FFF7F3FA1AA00D
:1012500000F052FE10491DA000F04EFE70BD0000CF
:101260003A000020360000209A00002041545E53CE
:101270004953433D310D0A0090012142436F6E7482
:10128000726F6C205A6967626565204F4B210A00B6
:101290006572726F72210A001A01002041545E5378
:1012A0004953523D312C00000C0000203200002038
:1012B0004E0000203B00002067707273207265634F
:1012C000656976656420646174613A0025730A007B
:1012D0001449088000BF1349091F098811F0400F05
:1012E000F9D0704770B50446002500BF04E0605D8A
:1012F000FFF7EEFF681C85B2204600F0D3FEA8423F
:10130000F5D870BD10B502460C46002300BF05E0BD
:101310001078FFF7DDFF521C581C83B2A342F7DBA5
:1013200010BD0000043801402F48806940F00400DF
:101330002D4988610846806940F0100088612B487B
:10134000006820F0FF002A49C1F804080846D0F8D8
:10135000040840F03300C1F804080846D0F80C082F
:1013600040F48070C1F80C080846D0F80C0840F42E
:101370000070C1F80C081F48006800F47F001D4988
:101380000860084600681C4908431A490860084676
:10139000C06840F04000C8600846C06840F0800067
:1013A000C860704710B5012014490860C820FEF7D6
:1013B00028FF00201249C1F8A001C820FEF721FF34
:1013C00010BD10B501200D49091D08604FF4FA70D9
:1013D000FEF717FF00200A49C1F8A4014FF4FA7084
:1013E000FEF70FFF10BD000000100240040801408E
:1013F000000001400010014088880033A001214214
:10140000000021424F48008810F0010F3BD04E48A9
:101410000088401C4C490880084600883C2824D09D
:1014200008460088782820D008460088B4281CD0B8
:1014300008460088F02818D008460088B0F5967F46
:1014400013D008460088B0F5B47F0ED00846008857
:10145000B0F5D27F09D008460088B0F5F07F04D0FF
:1014600008460088B0F5077F02D10120374908708F
:1014700035480088B0F5167F05DB02203349087037
:101480000020314908802F48008820F001004FF0EB
:101490008041A1F81004704770B504460D462C48F1
:1014A000C06940F002002A49C86126481C30048007
:1014B0008804A0F82854B0F80C0440F00100890416
:1014C000A1F80C040846B0F80C0440F04000A1F864
:1014D0000C0402231D2203210120FEF7E1FE70BD52
:1014E0004FF08040008A10F0010F04D019480078B6
:1014F000401C184908704FF08040008A20F001001D
:101500004FF080410882704770B504460D46104880
:10151000C06940F001000E49C861880484850585D2
:10152000808940F00100890488810846808940F064
:101530004000888102231C2203210120FEF7B0FE17
:1015400070BD00001004004034000020390000206D
:10155000001002404E00002070B50546002405E052
:10156000601CC4B2C82C01DD002070BD8848008911
:1015700010F0020FF4D08648858100246420FEF725
:101580005BFE05E0601CC4B2C82C01DD0020ECE766
:101590007F48008910F0010FF4D07D488089C0B2E7
:1015A000E3E710B57B48806940F004007949886121
:1015B0000846806940F48050886177480068C0F32D
:1015C00013007649C1F8000873480068744908435D
:1015D0007249C1F800080846D0F80C0840F0E00055
:1015E000C1F80C080846D0F8000820F47020C1F8B3
:1015F00000080846D0F8000840F44030C1F8000860
:1016000063480088624908800846008840F40070FA
:1016100008800846008840F48070088008460088EA
:1016200040F00400088008460088088008460088CA
:101630004FF6FC710840564908800846008840F083
:10164000380008800846008808800846008840F076
:1016500040000880FF20FFF77FFF10BD4C4909883C
:101660004FF6C77211404A4A118018B911460988CD
:10167000118017E0012806D14549098841F0100181
:10168000434A11800EE0022806D14149098841F001
:1016900018013F4A118005E03D49098841F03801B1
:1016A0003B4A11803A49098841F04001384A11808B
:1016B000704770B50024002500203A4908600A20D0
:1016C000FEF7BAFD3848007840BB00BF04E0601C5C
:1016D000C4B20520FEF795FD0A2C06DA3620FFF786
:1016E0003BFF324908703728F1D10520FEF789FD0C
:1016F0003620FFF731FF2D490870084601782CA0ED
:1017000000F0FAFB29480078372803D10120264948
:10171000087036E000202449087032E02248007842
:1017200001282ED13820FFF717FF0520FEF769FDAD
:10173000002508E03020FFF70FFF1E494855022022
:10174000FEF75FFD6D1C802DF4D3002505E01948E0
:10175000415D19A000F0D0FB6D1C802DF7D317A0C0
:1017600000F0CAFB134890F87F007F2803D114A033
:1017700000F0C2FB05E019A000F0BEFB00200A4902
:101780000870012007490860FEF73BFD70BD7047F7
:1017900000300140001002400008014000000140FC
:1017A0000000B0BB90012142100000201100002079
:1017B000256400009A010020257800000A0000003E
:1017C000526563656976656420446174612069735C
:1017D000207269676874210A000000005265636521
:1017E0006976656420446174612069732077726F43
:1017F0006E67210A00000000F0B50346642093FBE9
:10180000F0F0C5B2642093FBF0F700FB1730C6B2CE
:10181000132D02DD06F16400C6B2F71706EB9777C9
:10182000304606EBA704072094FBF0F700FB1740B7
:1018300084B2A0184F1EDFF86CC41CF8077038443F
:1018400084B2F71706EB9777BF10B6EB870703D183
:10185000032901DA601E84B2072094FBF0F700FB35
:101860001740C0B2F0BD0146CA1701EB9272921048
:10187000B1EB820212D1642091FBF0F200FB121056
:1018800050B94FF4C87091FBF0F200FB121008B988
:10189000012070470020FCE70120FAE70020F8E76C
:1018A00070B5002600240025FF4806883604FF484E
:1018B000B0F81C080644FE48B6FBF0F4FD4800886A
:1018C000A0423AD0FB490C8040F2B2750EE02846A7
:1018D000FFF7C9FF30B1B4F5B77F02D3A4F5B774F1
:1018E00002E006E0A4F26D14681C85B2B4F5B67F80
:1018F000EDD800BFF0488580002516E0EE498888C5
:10190000FFF7B1FF30B1012D04D11D2C01D31D3CD7
:1019100009E00CE0E948405DA04203D8E748405D9B
:10192000241A00E003E0681C85B21C2CE6D200BF3C
:10193000681CE1498871601CC871DD48B6FBF0F194
:1019400000FB11644FF46160B4FBF0F0DA490870F9
:101950004FF46160B4FBF0F100FB11403C21B0FB9F
:10196000F1F0D54948704FF46160B4FBF0F100FB31
:1019700011403C21B0FBF1F201FB1200CE4988700E
:101980000B46DA7999799888FFF736FFCA490872C9
:10199000002070BD2DE9F04704460D461646DDE9EE
:1019A00008784FF0000A40F2B270844203DB40F640
:1019B0003300844202DD0120BDE8F08740F2B279B5
:1019C0000CE04846FFF74FFF10B1BD48824401E0EC
:1019D000BC48824409F101001FFA80F9A145F0DBFF
:1019E000681EC5B24FF0000914E0B44810F80900B1
:1019F00040F2A32148430AEBC01A2046FFF733FF09
:101A000020B1B9F1010F01D1A948824409F10100C7
:101A10001FFA80F9A945E8DB701E40F2A321484374
:101A20000AEBC01AC3EB4310C0EB03200AEB001A09
:101A3000C7EB07100AEB800AC244A348C06940F014
:101A40008050A149C8610846C06940F00060C86183
:101A50009E48006840F480709C49086092481438A1
:101A6000008840F010009149A1F804088E49091D32
:101A7000A1F800A04FEA1A408C49A1F818080846BE
:101A8000B0F8040820F01000A1F8040800BF864850
:101A90001438008810F0200FF9D000208CE770B5C2
:101AA0000346002409E013F8015B11F8016BB5420D
:101AB00001D0002070BD601CC4B29442F3DB012051
:101AC000F8E72DE9FE47002406E081480068005D44
:101AD00002A90855601CC4B2032CF6DB00240BE0FD
:101AE00004EB44017B4A8818032202A9FFF7D7FFC1
:101AF00000B103E0601CC4B20C2CF1DB00BF601C21
:101B0000C5B2734800680079202805D17048006884
:101B100040793038C6B20BE06D48006840796C49B6
:101B20000968097930390A2202FB01003038C6B24F
:101B300067480068C07930384FF47A714843644987
:101B40000968097A3039642202FB0100604909689A
:101B5000497A30390A2202FB01005D490968897A15
:101B60000844303887B25C48006840785A490968B0
:101B70000978303902FB0100303800F0FF0A56487E
:101B80000068007954490968C978303902FB0100BE
:101B9000303800F0FF0950480068C0794E490968A4
:101BA0008979303902FB0100303800F0FF085346D4
:101BB000324629463846CDE90098FFF7EBFEBDE8EE
:101BC000FE8710B5002445480088A0F5A041503993
:101BD00066D03D48C06940F080503B49C861084626
:101BE000C06940F00060C8613848006840F4807007
:101BF000364908603448006A40F48030324908624F
:101C00000846006A20F4803008620846006A40F006
:101C10000100086204E0601CC4B20A20FEF7F1FA79
:101C20002948006A10F0020F01D1FA2CF3DBFA2CDC
:101C300001DB012010BD2448006A40F48070224975
:101C400008620846006A40F40040086200BF164877
:101C50001438008810F0200FF9D000BF1248143853
:101C6000008810F0080FF9D00F481838008840F0AD
:101C700001000E49A1F8000800BF0B481438008885
:101C800010F0200FF9D008481438008840F01000F8
:101C90000649A1F8040800200349103908801FE014
:101CA00038E000009A290008182800400020004071
:101CB000805101001200002090000020A629000899
:101CC0000085E2018033E101001002400070004015
:101CD00014000020B229000818000020046C004005
:101CE00047F6FF702C49A1F80C08FFF7EAFE2A48D6
:101CF000B0F8040820F010002749A1F8040800BF3C
:101D00002648008810F0200FFAD045F250002449F0
:101D1000088013E000BF2148008810F0080FFAD0B7
:101D20001E48001F008840F001001B49A1F8000870
:101D300000BF1A48008810F0200FFAD002230322B7
:101D400000210846FEF7ACFAFFF7AAFD002071E774
:101D500000B51248008810F0010F01D0FFF7A0FD78
:101D60000E48008810F0020F06D00C48008820F0C2
:101D700002000949A1F804080848008840F6FA71F1
:101D800008400549A1F8040800BF0448008810F085
:101D9000200FFAD000BD00000020004004280040C1
:101DA000046C004010B50920FEF77AFB4820FEF7CE
:101DB00011FAFFF7B9FAFFF704FF4FF41651242088
:101DC000FEF792FC4FF416514820FEF70CFCFFF78B
:101DD000E8FB0320FFF742FC41F61F4141F2883047
:101DE000FFF75AFB41F61F414FF47A70FFF78CFB67
:101DF000FEF7F7FDFFF75DFC6420FEF702FA63E0F3
:101E000032480078012832D1FEF78DFD01282ED10D
:101E1000FEF7F7F92E48FFF765FAFEF70BFDFEF720
:101E200030FF30202B494870312088703220C87034
:101E30003320087134204871352088713620C871EC
:101E4000372008723820487223A12248FEF780FF0D
:101E500022A12348FEF77CFF2248008840F00100C1
:101E60004FF08041A1F800040020184908701E4876
:101E70000078012809D11648FFF734FAFEF7DAFC9A
:101E8000FFF77FF9002018490870184800780128EA
:101E900009D100201549087015480078022813D18F
:101EA000FEF7CFFF10E01148007802280CD1002087
:101EB0000E4908700E480078022805D107A108488D
:101EC000FEF746FFFFF75DF99AE7000038000020B3
:101ED0009A0000203C000020313100003036000024
:101EE0004700002000040040370000203900002097
:101EF00036000020704700000FB4054A054910B5B0
:101F000003AB7944029800F04CF910BC5DF814FB67
:101F10000800002055E6FFFF2DE9F04104460E467B
:101F200000202BE0E1682046884748B3252802D0EE
:101F3000D4E901211FE0E168204600278847050019
:101F40001ED0A5F14100192802D820354FF40067B2
:101F50003246294620462760FEF702F940B10128A3
:101F600001D1361DDEE7F61D26F007060836D9E753
:101F7000D4E9012128469047206A401C2062D1E71D
:101F8000206ABDE8F08170B505460C46012A01D1F2
:101F900001200BE02868800600D5EA69002000E0F7
:101FA000401C904202D2215C0029F9D1A96926186F
:101FB000091AA961296A014428462962AFF3008001
:101FC00004E0D5E9012114F8010B9047B442F8D39D
:101FD0002846AFF3008070BD2DE9F0418046002611
:101FE00010687529414614A511D0AFF30080002870
:101FF00002DA404211A508E0D8F800108A0701D59E
:102000000FA502E0490704D50EA5012601E0AFF3B4
:102010000080002408F1240704E000F0EBF83031E0
:102020003955641C0028F8D133462A4621464046DB
:10203000BDE8F04100F059B8000000002D0000009C
:102040002B0000002000000070B504460D4621461C
:102050001068AFF300802168090502D5104A7A4460
:1020600002E00F4A7A440E32002104F1240306E014
:1020700000F00F064FEA1010965D5E54491C0028D0
:10208000F6D120680023000704D5702D02D009B1D5
:10209000113202232046BDE8704000F026B800004F
:1020A0007409000010B5431C04E010F8011B09B9C5
:1020B000C01A10BD8107F8D14FF0013202C88C1A46
:1020C0008C4314EAC211F9D0C01A0A0601D0C01E0E
:1020D00010BD0A0401D0801E10BD0902FCD0401EB4
:1020E00010BD70477047704770472DE9F0470D46A7
:1020F00004469246994600F124080168880604D5F2
:10210000E06921F01001216000E001200027A842D1
:1021100000DD471BA1697A1902EB0900081AA061CA
:102120002068C00602D42046AFF30080002608E0F5
:10213000D4E901211AF806009047206A401C761C59
:1021400020624E45F4DB2068C0060AD52046AFF376
:10215000008006E0D4E9012130209047206A401C2D
:102160002062381EA7F10107F4DC07E0D4E9012161
:1021700018F805009047206A401C2062281EA5F12F
:102180000105F3DC2046AFF3008021680220090638
:1021900000D40120BDE8F08701694A1C026108787B
:1021A000704710B50C46194690B0CDE902420022A6
:1021B0000692044A7A44CDE9042001A8FFF7ACFE58
:1021C00010B010BDE1FFFFFF10B5436913B1AFF3CD
:1021D000008001E0FFF7D7FE012010BD126800F17A
:1021E00024010A7000224A700122EDE711684FF0C5
:1021F000FF32E9E74FF00A01B0FBF1F202FB1101F7
:1022000010467047754600F029F8AE46050069464D
:10221000534620F00700854618B020B5FDF7CCFFE7
:10222000BDE820404FF000064FF000074FF00008D7
:102230004FF0000B21F00701AC46ACE8C009ACE858
:10224000C009ACE8C009ACE8C0098D467047044637
:10225000AFF300802046FDF79DFF00000048704767
:102260001C02002090EA010F48BF81F0004100F1FC
:102270007C82421A3CBF801A89184FEAD0524FF034
:102280007F4C1CEA410FA2EBD15318BF9CEA026FAE
:1022900000F040804FF0004C4CEA00204CEA012155
:1022A00021FA03FC10EB0C0C23D202F1FF325FEA9F
:1022B0001C2040EBC25038BF70471CF07F0F4FEA24
:1022C000400C18BFBCF17F4F38BF7047C3F12003EB
:1022D000994008BF20F00100BCF17F4F38BF704724
:1022E000A0F1C0404FF0FF0141EAD0514FEAC15088
:1022F00070474FEA3C00000A40EBC25028BF1CF078
:10230000FF0F4FEA400CE1D018BFBCF17F4F38BF40
:102310007047E5E79CEA026F05D010EA5C0F08BF42
:1023200000F000407047BCEB410F4FEA400228BF6D
:102330009445DFF828C0C0F01580AFF30080B2EB01
:10234000410F05D012F1807F08BF704708467047E3
:1023500090EA010F58BF7047014870470100000420
:102360000000C07F014800F0CEBA00000000C07F2E
:10237000014800F0C8BA00000000C07F4FF47F0C95
:102380001CEAD0121EBF1CEAD11392EA0C0F93EA8A
:102390000C0F00F0A58090EA010F48BF42F4807254
:1023A00040F4000C41F400002CF07F4120F07F400D
:1023B00000B58142A2EB03020FF2401CACEB504E81
:1023C000C0F100009EF800E04FEA4E0E00FB0EFC4C
:1023D00038BF49004FEA2C1C02F5FA020CFB0EF341
:1023E0004FEACE1E4FEA112C4FEAC1210EEB635E7D
:1023F0000EFB0CFC4FEA1C5300FB03114FEA112C9F
:102400004FEA01310EFB0CFC02F4807E42EB2242CB
:102410004FEADC4C00FB0C11C14228BF09184CEB01
:102420000333012924BF4EF0020E4EF0804E10EB14
:10243000410F24BF4EF0010E4EF0804E08BF4EF00B
:10244000040E4EF008015DF804EB43EBC25018BFD8
:10245000B2F57C0F38BF704741EAC07108BF20F069
:102460000100B2F57C0F38BF704729D512F0F00F8C
:102470001CBF00F1C04000F0004070470081828323
:102480008485868788898B8C8D8E8F919293959683
:1024900097999A9C9D9FA0A2A3A5A7A8AAACAEB00D
:1024A000B2B3B5B7B9BCBEC0C2C5C7C9CCCED1D412
:1024B000D7D9DCDFE2E6E9ECF0F3F7FAFE00000042
:1024C0004FEA400C0CF1807CBCF17E4F28BF704776
:1024D000B0F1C0404FF07F404CBF40104008704703
:1024E00090EA010F0CEAD11348BF42F480726245B2
:1024F00038BF634507D213F47F0F23D080EA010071
:1025000000F0004070474FF0807C1CEB400F98BFFC
:102510001CEB410FDFF840C03FF624AFAFF3008063
:102520004FF0807C1CEB400F02BF1CEB410F0B48AF
:1025300070471CEB410F0CBF002020F0004040EA28
:10254000C250704712F47F0F04BF0448704742F036
:10255000FF004FEAC0507047040000040000C07F35
:10256000C2154FEA002318BF43F0004305D4D2F14F
:102570009E020AD323FA02F070474FEA4001B1F1FC
:10258000FE4F02D24FF000007047DFF828C04FEA3C
:102590004001B1F17F4F88BF4CF4803C3FF6E8AE7C
:1025A0001CBF6FEAE0707047AFF300806FEAE07025
:1025B000704700006800020410F0004218BF40425B
:1025C00042F08042B0FA80F18840A2EBC15202F1A1
:1025D000786208BF7047410642EB202018BF5FF0C9
:1025E000806C28BF20F0010070474FF08042FFF759
:1025F000E9BF00004FF47F0C1CEAD0121EBF1CEA9A
:10260000D11392EA0C0F93EA0C0F00F04A8090EA83
:10261000010F48BF42F480724FF0004C4CEA00209A
:102620004CEA01211A44A0FB01C3A2F50002BCF14F
:10263000000F18BF43F0010302F4807CB3F1004F98
:1026400038BF5B0042EB2242180A40EBC25028BF61
:1026500013F07F0F18BFB2F57C0F38BF704708BF6B
:1026600020F00100B2F57C0F38BF70470BD582F027
:10267000FF0212F5803FC8BF704700F1C040D8BFCD
:1026800000F00040704700F5000C5FEA4C0C48BFBA
:102690007047B0F1C0404FF07F404CBF4010400841
:1026A000704790EA010F0CEAD11348BF42F48072E0
:1026B000624538BF634504D280EA010000F0004063
:1026C00070474FF0807C1CEB400F98BF1CEB410F14
:1026D0004FF0030C4CF0806C3FF644AEAFF300803B
:1026E00012F47F0F1FBF13F47F0F42F0FF02D005DB
:1026F00070470148704700000000C07F10B412F41A
:102700007F0F4FEA00204FEA012110D1B0FA80F488
:1027100000FA04F0A2EB044213F47F0F02F58032BA
:1027200018BF41F0004100D010BC18BF604740F016
:102730000040B1FA81F401FA04F1A3EB044310BCA8
:1027400003F58033604780F0004090EA010F7FF589
:1027500090AD81F0004100F008B8000090EA010F50
:1027600048BF81F000413FF584AD421A3EBF82F080
:102770000042801A89184FEAD0524FF07F4C1CEA71
:10278000410FA2EBD15318BF9CEA026F4FD04FF01C
:10279000004C4CEA00204CEA012121FA03FCB0EB8A
:1027A0000C0C0FD412F0FE0F18BF5FEA4C001DD5C1
:1027B000001240EBC25038BF70471CF03F0F18BFEB
:1027C00070470BE0A2F101025FEA1C2040EBC2500F
:1027D00038BF70471CF07F0F18BF7047C3F120034C
:1027E000994014BF401E20F0010070474FEA1223A9
:1027F00016D0004204BF002070474FEA9000B0FAA4
:1028000080FCA2EB0C02CCF1280C60FA0CF093EAED
:10281000122F04BF00EBC25070474FEAC3707047DD
:102820005FEADC1008BF70474FEAC37070479CEA4C
:10283000026F04D010EA5C0F08BF00207047BCEBA9
:10284000410F4FEA400228BF9445DFF82CC0FFF447
:1028500089ADAFF30080B2EB410F06D012F1807F5B
:1028600008BF704781F00040704790EA010F48BFF1
:102870007047024870470000020000040000C07F5B
:1028800000F0004343EAD05323F48073C3F1C10343
:1028900023F0004117291FD8C3F1200310FA03F1D8
:1028A000C3F1200320F07F4040F4000020FA03F041
:1028B00003F0004340EA03000DD00B46590009D352
:1028C00018BF401C06D17FEAE27398BF401C38BF96
:1028D00020F0010070477047182903EB912318BFBF
:1028E0006FF00041013168BF03F0004009D640029B
:1028F00003F0004000F1010004BF12F0004F20F08F
:102900000100704770470CF00F03092B08BF082027
:1029100000F02B800A2B0BD0082B18BF704708BF84
:102920001CF0400F0AD04FF000004FF0000170473C
:102930001CF0400F18BF4FF0004070471CF0100F04
:1029400008D020F0704300F07F4242EAD3014FEA02
:102950004370704700F0604021F07F4242EA00027D
:1029600001F07F4040EA727070471CF4801F11D064
:102970001CF4E02F03D06FEACC31490070474FF0D0
:102980004050EFF3008222F0704242EA000282F3EC
:10299000008870474FF000007047000303060104F1
:1029A0000602050003051F1C1F1E1F1E1F1F1E1FE2
:1029B0001E1F4A616E4665624D61724170724D61C3
:1029C000794A756E4A756C4175675365704F6374CB
:1029D0004E6F7644656330313233343536373839AB
:1029E000414243444546403058003031323334355B
:1029F00036373839616263646566403078004E6FFF
:102A00007620323820323031310031373A32363A9E
:102A100032320000342A000800000020500000007C
:102A200028010008842A000850000020300400001B
:102A30004401000800000000000000000000000049
:102A40003130300000000000FE2900080A2A00088A
:102A50003036302E3137362E34312E3039353A3546
:102A600030303300000100000000000001000000D1
:102A7000233131313131313131312423303133336C
:042A8000240000002E
:04000005080000ED02
:00000001FF
